{
	"data": {
		"bytecode": {
			"linkReferences": {},
			"object": "6080604052348015600e575f5ffd5b506126ec8061001c5f395ff3fe608060405234801561000f575f5ffd5b50600436106100b2575f3560e01c80636d955f501161006f5780636d955f50146101c25780637190221b146101f35780637911c25714610224578063ab1ebbb014610254578063b260cbac14610286578063d8e77cdb146102b6576100b2565b806311eab7a5146100b6578063321eca56146100e657806342fba99114610102578063490348b7146101325780634ce8f1ff14610162578063634a5d1c14610192575b5f5ffd5b6100d060048036038101906100cb91906117ae565b6102eb565b6040516100dd919061185c565b60405180910390f35b61010060048036038101906100fb9190611b4a565b61039c565b005b61011c60048036038101906101179190611c87565b610a0e565b6040516101299190611d30565b60405180910390f35b61014c60048036038101906101479190611c87565b610b46565b6040516101599190611d63565b60405180910390f35b61017c60048036038101906101779190611c87565b610bb7565b6040516101899190611e68565b60405180910390f35b6101ac60048036038101906101a79190611c87565b610ded565b6040516101b99190611f7d565b60405180910390f35b6101dc60048036038101906101d79190611f9d565b610fe3565b6040516101ea929190612018565b60405180910390f35b61020d60048036038101906102089190611f9d565b6110c6565b60405161021b929190612018565b60405180910390f35b61023e60048036038101906102399190611c87565b6111a9565b60405161024b9190611f7d565b60405180910390f35b61026e60048036038101906102699190611c87565b61139f565b60405161027d93929190612046565b60405180910390f35b6102a0600480360381019061029b919061207b565b6113e8565b6040516102ad9190612161565b60405180910390f35b6102d060048036038101906102cb9190611c87565b6114f9565b6040516102e296959493929190612190565b60405180910390f35b6004602052815f5260405f208181548110610304575f80fd5b905f5260205f20015f9150915050805461031d90612223565b80601f016020809104026020016040519081016040528092919081815260200182805461034990612223565b80156103945780601f1061036b57610100808354040283529160200191610394565b820191905f5260205f20905b81548152906001019060200180831161037757829003601f168201915b505050505081565b85518751146103e0576040517f08c379a00000000000000000000000000000000000000000000000000000000081526004016103d7906122c3565b60405180910390fd5b8351855114610424576040517f08c379a000000000000000000000000000000000000000000000000000000000815260040161041b9061232b565b60405180910390fd5b5f3390505f5f8273ffffffffffffffffffffffffffffffffffffffff1673ffffffffffffffffffffffffffffffffffffffff1681526020019081526020015f20896040516104729190612383565b90815260200160405180910390206005015f9054906101000a900460ff166105025760045f8273ffffffffffffffffffffffffffffffffffffffff1673ffffffffffffffffffffffffffffffffffffffff1681526020019081526020015f2089908060018154018082558091505060019003905f5260205f20015f9091909190915090816105009190612539565b505b6040518060c001604052808273ffffffffffffffffffffffffffffffffffffffff1681526020018a81526020014281526020018951815260200187518152602001600115158152505f5f8373ffffffffffffffffffffffffffffffffffffffff1673ffffffffffffffffffffffffffffffffffffffff1681526020019081526020015f208a6040516105949190612383565b90815260200160405180910390205f820151815f015f6101000a81548173ffffffffffffffffffffffffffffffffffffffff021916908373ffffffffffffffffffffffffffffffffffffffff16021790555060208201518160010190816105fb9190612539565b5060408201518160020155606082015181600301556080820151816004015560a0820151816005015f6101000a81548160ff02191690831515021790555090505060015f8273ffffffffffffffffffffffffffffffffffffffff1673ffffffffffffffffffffffffffffffffffffffff1681526020019081526020015f20896040516106879190612383565b90815260200160405180910390205f6106a09190611604565b60025f8273ffffffffffffffffffffffffffffffffffffffff1673ffffffffffffffffffffffffffffffffffffffff1681526020019081526020015f20896040516106eb9190612383565b90815260200160405180910390205f6107049190611604565b5f5f90505b88518110156108075760015f8373ffffffffffffffffffffffffffffffffffffffff1673ffffffffffffffffffffffffffffffffffffffff1681526020019081526020015f208a60405161075d9190612383565b908152602001604051809103902060405180604001604052808b848151811061078957610788612608565b5b602002602001015181526020018a84815181106107a9576107a8612608565b5b6020026020010151815250908060018154018082558091505060019003905f5260205f2090600202015f909190919091505f820151815f0190816107ed9190612539565b506020820151816001015550508080600101915050610709565b505f5f90505b865181101561090b5760025f8373ffffffffffffffffffffffffffffffffffffffff1673ffffffffffffffffffffffffffffffffffffffff1681526020019081526020015f208a6040516108619190612383565b9081526020016040518091039020604051806040016040528089848151811061088d5761088c612608565b5b602002602001015181526020018884815181106108ad576108ac612608565b5b6020026020010151815250908060018154018082558091505060019003905f5260205f2090600202015f909190919091505f820151815f0190816108f19190612539565b50602082015181600101555050808060010191505061080d565b5060405180606001604052808581526020018481526020018381525060035f8373ffffffffffffffffffffffffffffffffffffffff1673ffffffffffffffffffffffffffffffffffffffff1681526020019081526020015f208a6040516109729190612383565b90815260200160405180910390205f820151815f01556020820151816001015560408201518160020155905050886040516109ad9190612383565b60405180910390208173ffffffffffffffffffffffffffffffffffffffff167f3d5bdf2410fd0a29b93ca35cb3af63966aeb9b1cc8e0ad75ed0ab81c18b94a84426040516109fb9190612635565b60405180910390a3505050505050505050565b610a16611625565b5f5f8473ffffffffffffffffffffffffffffffffffffffff1673ffffffffffffffffffffffffffffffffffffffff1681526020019081526020015f2082604051610a609190612383565b90815260200160405180910390206005015f9054906101000a900460ff16610abd576040517f08c379a0000000000000000000000000000000000000000000000000000000008152600401610ab490612698565b60405180910390fd5b60035f8473ffffffffffffffffffffffffffffffffffffffff1673ffffffffffffffffffffffffffffffffffffffff1681526020019081526020015f2082604051610b089190612383565b90815260200160405180910390206040518060600160405290815f820154815260200160018201548152602001600282015481525050905092915050565b5f5f5f8473ffffffffffffffffffffffffffffffffffffffff1673ffffffffffffffffffffffffffffffffffffffff1681526020019081526020015f2082604051610b919190612383565b90815260200160405180910390206005015f9054906101000a900460ff16905092915050565b610bbf611643565b5f5f8473ffffffffffffffffffffffffffffffffffffffff1673ffffffffffffffffffffffffffffffffffffffff1681526020019081526020015f2082604051610c099190612383565b90815260200160405180910390206005015f9054906101000a900460ff16610c66576040517f08c379a0000000000000000000000000000000000000000000000000000000008152600401610c5d90612698565b60405180910390fd5b5f5f8473ffffffffffffffffffffffffffffffffffffffff1673ffffffffffffffffffffffffffffffffffffffff1681526020019081526020015f2082604051610cb09190612383565b90815260200160405180910390206040518060c00160405290815f82015f9054906101000a900473ffffffffffffffffffffffffffffffffffffffff1673ffffffffffffffffffffffffffffffffffffffff1673ffffffffffffffffffffffffffffffffffffffff168152602001600182018054610d2d90612223565b80601f0160208091040260200160405190810160405280929190818152602001828054610d5990612223565b8015610da45780601f10610d7b57610100808354040283529160200191610da4565b820191905f5260205f20905b815481529060010190602001808311610d8757829003601f168201915b50505050508152602001600282015481526020016003820154815260200160048201548152602001600582015f9054906101000a900460ff161515151581525050905092915050565b60605f5f8473ffffffffffffffffffffffffffffffffffffffff1673ffffffffffffffffffffffffffffffffffffffff1681526020019081526020015f2082604051610e399190612383565b90815260200160405180910390206005015f9054906101000a900460ff16610e96576040517f08c379a0000000000000000000000000000000000000000000000000000000008152600401610e8d90612698565b60405180910390fd5b60025f8473ffffffffffffffffffffffffffffffffffffffff1673ffffffffffffffffffffffffffffffffffffffff1681526020019081526020015f2082604051610ee19190612383565b9081526020016040518091039020805480602002602001604051908101604052809291908181526020015f905b82821015610fd7578382905f5260205f2090600202016040518060400160405290815f82018054610f3e90612223565b80601f0160208091040260200160405190810160405280929190818152602001828054610f6a90612223565b8015610fb55780601f10610f8c57610100808354040283529160200191610fb5565b820191905f5260205f20905b815481529060010190602001808311610f9857829003601f168201915b5050505050815260200160018201548152505081526020019060010190610f0e565b50505050905092915050565b6001602052825f5260405f2082805160208101820180518482526020830160208501208183528095505050505050818154811061101e575f80fd5b905f5260205f2090600202015f925092505050805f01805461103f90612223565b80601f016020809104026020016040519081016040528092919081815260200182805461106b90612223565b80156110b65780601f1061108d576101008083540402835291602001916110b6565b820191905f5260205f20905b81548152906001019060200180831161109957829003601f168201915b5050505050908060010154905082565b6002602052825f5260405f20828051602081018201805184825260208301602085012081835280955050505050508181548110611101575f80fd5b905f5260205f2090600202015f925092505050805f01805461112290612223565b80601f016020809104026020016040519081016040528092919081815260200182805461114e90612223565b80156111995780601f1061117057610100808354040283529160200191611199565b820191905f5260205f20905b81548152906001019060200180831161117c57829003601f168201915b5050505050908060010154905082565b60605f5f8473ffffffffffffffffffffffffffffffffffffffff1673ffffffffffffffffffffffffffffffffffffffff1681526020019081526020015f20826040516111f59190612383565b90815260200160405180910390206005015f9054906101000a900460ff16611252576040517f08c379a000000000000000000000000000000000000000000000000000000000815260040161124990612698565b60405180910390fd5b60015f8473ffffffffffffffffffffffffffffffffffffffff1673ffffffffffffffffffffffffffffffffffffffff1681526020019081526020015f208260405161129d9190612383565b9081526020016040518091039020805480602002602001604051908101604052809291908181526020015f905b82821015611393578382905f5260205f2090600202016040518060400160405290815f820180546112fa90612223565b80601f016020809104026020016040519081016040528092919081815260200182805461132690612223565b80156113715780601f1061134857610100808354040283529160200191611371565b820191905f5260205f20905b81548152906001019060200180831161135457829003601f168201915b50505050508152602001600182015481525050815260200190600101906112ca565b50505050905092915050565b6003602052815f5260405f20818051602081018201805184825260208301602085012081835280955050505050505f9150915050805f0154908060010154908060020154905083565b606060045f8373ffffffffffffffffffffffffffffffffffffffff1673ffffffffffffffffffffffffffffffffffffffff1681526020019081526020015f20805480602002602001604051908101604052809291908181526020015f905b828210156114ee578382905f5260205f2001805461146390612223565b80601f016020809104026020016040519081016040528092919081815260200182805461148f90612223565b80156114da5780601f106114b1576101008083540402835291602001916114da565b820191905f5260205f20905b8154815290600101906020018083116114bd57829003601f168201915b505050505081526020019060010190611446565b505050509050919050565b5f602052815f5260405f20818051602081018201805184825260208301602085012081835280955050505050505f9150915050805f015f9054906101000a900473ffffffffffffffffffffffffffffffffffffffff169080600101805461155f90612223565b80601f016020809104026020016040519081016040528092919081815260200182805461158b90612223565b80156115d65780601f106115ad576101008083540402835291602001916115d6565b820191905f5260205f20905b8154815290600101906020018083116115b957829003601f168201915b505050505090806002015490806003015490806004015490806005015f9054906101000a900460ff16905086565b5080545f8255600202905f5260205f2090810190611622919061168c565b50565b60405180606001604052805f81526020015f81526020015f81525090565b6040518060c001604052805f73ffffffffffffffffffffffffffffffffffffffff168152602001606081526020015f81526020015f81526020015f81526020015f151581525090565b5b808211156116b4575f5f82015f6116a491906116b8565b600182015f90555060020161168d565b5090565b5080546116c490612223565b5f825580601f106116d557506116f2565b601f0160209004905f5260205f20908101906116f191906116f5565b5b50565b5b8082111561170c575f815f9055506001016116f6565b5090565b5f604051905090565b5f5ffd5b5f5ffd5b5f73ffffffffffffffffffffffffffffffffffffffff82169050919050565b5f61174a82611721565b9050919050565b61175a81611740565b8114611764575f5ffd5b50565b5f8135905061177581611751565b92915050565b5f819050919050565b61178d8161177b565b8114611797575f5ffd5b50565b5f813590506117a881611784565b92915050565b5f5f604083850312156117c4576117c3611719565b5b5f6117d185828601611767565b92505060206117e28582860161179a565b9150509250929050565b5f81519050919050565b5f82825260208201905092915050565b8281835e5f83830152505050565b5f601f19601f8301169050919050565b5f61182e826117ec565b61183881856117f6565b9350611848818560208601611806565b61185181611814565b840191505092915050565b5f6020820190508181035f8301526118748184611824565b905092915050565b5f5ffd5b5f5ffd5b7f4e487b71000000000000000000000000000000000000000000000000000000005f52604160045260245ffd5b6118ba82611814565b810181811067ffffffffffffffff821117156118d9576118d8611884565b5b80604052505050565b5f6118eb611710565b90506118f782826118b1565b919050565b5f67ffffffffffffffff82111561191657611915611884565b5b61191f82611814565b9050602081019050919050565b828183375f83830152505050565b5f61194c611947846118fc565b6118e2565b90508281526020810184848401111561196857611967611880565b5b61197384828561192c565b509392505050565b5f82601f83011261198f5761198e61187c565b5b813561199f84826020860161193a565b91505092915050565b5f67ffffffffffffffff8211156119c2576119c1611884565b5b602082029050602081019050919050565b5f5ffd5b5f6119e96119e4846119a8565b6118e2565b90508083825260208201905060208402830185811115611a0c57611a0b6119d3565b5b835b81811015611a5357803567ffffffffffffffff811115611a3157611a3061187c565b5b808601611a3e898261197b565b85526020850194505050602081019050611a0e565b5050509392505050565b5f82601f830112611a7157611a7061187c565b5b8135611a818482602086016119d7565b91505092915050565b5f67ffffffffffffffff821115611aa457611aa3611884565b5b602082029050602081019050919050565b5f611ac7611ac284611a8a565b6118e2565b90508083825260208201905060208402830185811115611aea57611ae96119d3565b5b835b81811015611b135780611aff888261179a565b845260208401935050602081019050611aec565b5050509392505050565b5f82601f830112611b3157611b3061187c565b5b8135611b41848260208601611ab5565b91505092915050565b5f5f5f5f5f5f5f5f610100898b031215611b6757611b66611719565b5b5f89013567ffffffffffffffff811115611b8457611b8361171d565b5b611b908b828c0161197b565b985050602089013567ffffffffffffffff811115611bb157611bb061171d565b5b611bbd8b828c01611a5d565b975050604089013567ffffffffffffffff811115611bde57611bdd61171d565b5b611bea8b828c01611b1d565b965050606089013567ffffffffffffffff811115611c0b57611c0a61171d565b5b611c178b828c01611a5d565b955050608089013567ffffffffffffffff811115611c3857611c3761171d565b5b611c448b828c01611b1d565b94505060a0611c558b828c0161179a565b93505060c0611c668b828c0161179a565b92505060e0611c778b828c0161179a565b9150509295985092959890939650565b5f5f60408385031215611c9d57611c9c611719565b5b5f611caa85828601611767565b925050602083013567ffffffffffffffff811115611ccb57611cca61171d565b5b611cd78582860161197b565b9150509250929050565b611cea8161177b565b82525050565b606082015f820151611d045f850182611ce1565b506020820151611d176020850182611ce1565b506040820151611d2a6040850182611ce1565b50505050565b5f606082019050611d435f830184611cf0565b92915050565b5f8115159050919050565b611d5d81611d49565b82525050565b5f602082019050611d765f830184611d54565b92915050565b611d8581611740565b82525050565b5f82825260208201905092915050565b5f611da5826117ec565b611daf8185611d8b565b9350611dbf818560208601611806565b611dc881611814565b840191505092915050565b611ddc81611d49565b82525050565b5f60c083015f830151611df75f860182611d7c565b5060208301518482036020860152611e0f8282611d9b565b9150506040830151611e246040860182611ce1565b506060830151611e376060860182611ce1565b506080830151611e4a6080860182611ce1565b5060a0830151611e5d60a0860182611dd3565b508091505092915050565b5f6020820190508181035f830152611e808184611de2565b905092915050565b5f81519050919050565b5f82825260208201905092915050565b5f819050602082019050919050565b5f604083015f8301518482035f860152611ecb8282611d9b565b9150506020830151611ee06020860182611ce1565b508091505092915050565b5f611ef68383611eb1565b905092915050565b5f602082019050919050565b5f611f1482611e88565b611f1e8185611e92565b935083602082028501611f3085611ea2565b805f5b85811015611f6b5784840389528151611f4c8582611eeb565b9450611f5783611efe565b925060208a01995050600181019050611f33565b50829750879550505050505092915050565b5f6020820190508181035f830152611f958184611f0a565b905092915050565b5f5f5f60608486031215611fb457611fb3611719565b5b5f611fc186828701611767565b935050602084013567ffffffffffffffff811115611fe257611fe161171d565b5b611fee8682870161197b565b9250506040611fff8682870161179a565b9150509250925092565b6120128161177b565b82525050565b5f6040820190508181035f8301526120308185611824565b905061203f6020830184612009565b9392505050565b5f6060820190506120595f830186612009565b6120666020830185612009565b6120736040830184612009565b949350505050565b5f602082840312156120905761208f611719565b5b5f61209d84828501611767565b91505092915050565b5f81519050919050565b5f82825260208201905092915050565b5f819050602082019050919050565b5f6120da8383611d9b565b905092915050565b5f602082019050919050565b5f6120f8826120a6565b61210281856120b0565b935083602082028501612114856120c0565b805f5b8581101561214f578484038952815161213085826120cf565b945061213b836120e2565b925060208a01995050600181019050612117565b50829750879550505050505092915050565b5f6020820190508181035f83015261217981846120ee565b905092915050565b61218a81611740565b82525050565b5f60c0820190506121a35f830189612181565b81810360208301526121b58188611824565b90506121c46040830187612009565b6121d16060830186612009565b6121de6080830185612009565b6121eb60a0830184611d54565b979650505050505050565b7f4e487b71000000000000000000000000000000000000000000000000000000005f52602260045260245ffd5b5f600282049050600182168061223a57607f821691505b60208210810361224d5761224c6121f6565b5b50919050565b7f486973746f726963616c20617272617973206c656e677468206d69736d6174635f8201527f6800000000000000000000000000000000000000000000000000000000000000602082015250565b5f6122ad6021836117f6565b91506122b882612253565b604082019050919050565b5f6020820190508181035f8301526122da816122a1565b9050919050565b7f466f72656361737420617272617973206c656e677468206d69736d61746368005f82015250565b5f612315601f836117f6565b9150612320826122e1565b602082019050919050565b5f6020820190508181035f83015261234281612309565b9050919050565b5f81905092915050565b5f61235d826117ec565b6123678185612349565b9350612377818560208601611806565b80840191505092915050565b5f61238e8284612353565b915081905092915050565b5f819050815f5260205f209050919050565b5f6020601f8301049050919050565b5f82821b905092915050565b5f600883026123f57fffffffffffffffffffffffffffffffffffffffffffffffffffffffffffffffff826123ba565b6123ff86836123ba565b95508019841693508086168417925050509392505050565b5f819050919050565b5f61243a6124356124308461177b565b612417565b61177b565b9050919050565b5f819050919050565b61245383612420565b61246761245f82612441565b8484546123c6565b825550505050565b5f5f905090565b61247e61246f565b61248981848461244a565b505050565b5b818110156124ac576124a15f82612476565b60018101905061248f565b5050565b601f8211156124f1576124c281612399565b6124cb846123ab565b810160208510156124da578190505b6124ee6124e6856123ab565b83018261248e565b50505b505050565b5f82821c905092915050565b5f6125115f19846008026124f6565b1980831691505092915050565b5f6125298383612502565b9150826002028217905092915050565b612542826117ec565b67ffffffffffffffff81111561255b5761255a611884565b5b6125658254612223565b6125708282856124b0565b5f60209050601f8311600181146125a1575f841561258f578287015190505b612599858261251e565b865550612600565b601f1984166125af86612399565b5f5b828110156125d6578489015182556001820191506020850194506020810190506125b1565b868310156125f357848901516125ef601f891682612502565b8355505b6001600288020188555050505b505050505050565b7f4e487b71000000000000000000000000000000000000000000000000000000005f52603260045260245ffd5b5f6020820190506126485f830184612009565b92915050565b7f466f72656361737420646f6573206e6f742065786973740000000000000000005f82015250565b5f6126826017836117f6565b915061268d8261264e565b602082019050919050565b5f6020820190508181035f8301526126af81612676565b905091905056fea264697066735822122050b66359177f178480a36edde90191bf3cf48de5ce9ebd72533b4c23d6b45cae64736f6c634300081e0033",
			"opcodes": "PUSH1 0x80 PUSH1 0x40 MSTORE CALLVALUE DUP1 ISZERO PUSH1 0xE JUMPI PUSH0 PUSH0 REVERT JUMPDEST POP PUSH2 0x26EC DUP1 PUSH2 0x1C PUSH0 CODECOPY PUSH0 RETURN INVALID PUSH1 0x80 PUSH1 0x40 MSTORE CALLVALUE DUP1 ISZERO PUSH2 0xF JUMPI PUSH0 PUSH0 REVERT JUMPDEST POP PUSH1 0x4 CALLDATASIZE LT PUSH2 0xB2 JUMPI PUSH0 CALLDATALOAD PUSH1 0xE0 SHR DUP1 PUSH4 0x6D955F50 GT PUSH2 0x6F JUMPI DUP1 PUSH4 0x6D955F50 EQ PUSH2 0x1C2 JUMPI DUP1 PUSH4 0x7190221B EQ PUSH2 0x1F3 JUMPI DUP1 PUSH4 0x7911C257 EQ PUSH2 0x224 JUMPI DUP1 PUSH4 0xAB1EBBB0 EQ PUSH2 0x254 JUMPI DUP1 PUSH4 0xB260CBAC EQ PUSH2 0x286 JUMPI DUP1 PUSH4 0xD8E77CDB EQ PUSH2 0x2B6 JUMPI PUSH2 0xB2 JUMP JUMPDEST DUP1 PUSH4 0x11EAB7A5 EQ PUSH2 0xB6 JUMPI DUP1 PUSH4 0x321ECA56 EQ PUSH2 0xE6 JUMPI DUP1 PUSH4 0x42FBA991 EQ PUSH2 0x102 JUMPI DUP1 PUSH4 0x490348B7 EQ PUSH2 0x132 JUMPI DUP1 PUSH4 0x4CE8F1FF EQ PUSH2 0x162 JUMPI DUP1 PUSH4 0x634A5D1C EQ PUSH2 0x192 JUMPI JUMPDEST PUSH0 PUSH0 REVERT JUMPDEST PUSH2 0xD0 PUSH1 0x4 DUP1 CALLDATASIZE SUB DUP2 ADD SWAP1 PUSH2 0xCB SWAP2 SWAP1 PUSH2 0x17AE JUMP JUMPDEST PUSH2 0x2EB JUMP JUMPDEST PUSH1 0x40 MLOAD PUSH2 0xDD SWAP2 SWAP1 PUSH2 0x185C JUMP JUMPDEST PUSH1 0x40 MLOAD DUP1 SWAP2 SUB SWAP1 RETURN JUMPDEST PUSH2 0x100 PUSH1 0x4 DUP1 CALLDATASIZE SUB DUP2 ADD SWAP1 PUSH2 0xFB SWAP2 SWAP1 PUSH2 0x1B4A JUMP JUMPDEST PUSH2 0x39C JUMP JUMPDEST STOP JUMPDEST PUSH2 0x11C PUSH1 0x4 DUP1 CALLDATASIZE SUB DUP2 ADD SWAP1 PUSH2 0x117 SWAP2 SWAP1 PUSH2 0x1C87 JUMP JUMPDEST PUSH2 0xA0E JUMP JUMPDEST PUSH1 0x40 MLOAD PUSH2 0x129 SWAP2 SWAP1 PUSH2 0x1D30 JUMP JUMPDEST PUSH1 0x40 MLOAD DUP1 SWAP2 SUB SWAP1 RETURN JUMPDEST PUSH2 0x14C PUSH1 0x4 DUP1 CALLDATASIZE SUB DUP2 ADD SWAP1 PUSH2 0x147 SWAP2 SWAP1 PUSH2 0x1C87 JUMP JUMPDEST PUSH2 0xB46 JUMP JUMPDEST PUSH1 0x40 MLOAD PUSH2 0x159 SWAP2 SWAP1 PUSH2 0x1D63 JUMP JUMPDEST PUSH1 0x40 MLOAD DUP1 SWAP2 SUB SWAP1 RETURN JUMPDEST PUSH2 0x17C PUSH1 0x4 DUP1 CALLDATASIZE SUB DUP2 ADD SWAP1 PUSH2 0x177 SWAP2 SWAP1 PUSH2 0x1C87 JUMP JUMPDEST PUSH2 0xBB7 JUMP JUMPDEST PUSH1 0x40 MLOAD PUSH2 0x189 SWAP2 SWAP1 PUSH2 0x1E68 JUMP JUMPDEST PUSH1 0x40 MLOAD DUP1 SWAP2 SUB SWAP1 RETURN JUMPDEST PUSH2 0x1AC PUSH1 0x4 DUP1 CALLDATASIZE SUB DUP2 ADD SWAP1 PUSH2 0x1A7 SWAP2 SWAP1 PUSH2 0x1C87 JUMP JUMPDEST PUSH2 0xDED JUMP JUMPDEST PUSH1 0x40 MLOAD PUSH2 0x1B9 SWAP2 SWAP1 PUSH2 0x1F7D JUMP JUMPDEST PUSH1 0x40 MLOAD DUP1 SWAP2 SUB SWAP1 RETURN JUMPDEST PUSH2 0x1DC PUSH1 0x4 DUP1 CALLDATASIZE SUB DUP2 ADD SWAP1 PUSH2 0x1D7 SWAP2 SWAP1 PUSH2 0x1F9D JUMP JUMPDEST PUSH2 0xFE3 JUMP JUMPDEST PUSH1 0x40 MLOAD PUSH2 0x1EA SWAP3 SWAP2 SWAP1 PUSH2 0x2018 JUMP JUMPDEST PUSH1 0x40 MLOAD DUP1 SWAP2 SUB SWAP1 RETURN JUMPDEST PUSH2 0x20D PUSH1 0x4 DUP1 CALLDATASIZE SUB DUP2 ADD SWAP1 PUSH2 0x208 SWAP2 SWAP1 PUSH2 0x1F9D JUMP JUMPDEST PUSH2 0x10C6 JUMP JUMPDEST PUSH1 0x40 MLOAD PUSH2 0x21B SWAP3 SWAP2 SWAP1 PUSH2 0x2018 JUMP JUMPDEST PUSH1 0x40 MLOAD DUP1 SWAP2 SUB SWAP1 RETURN JUMPDEST PUSH2 0x23E PUSH1 0x4 DUP1 CALLDATASIZE SUB DUP2 ADD SWAP1 PUSH2 0x239 SWAP2 SWAP1 PUSH2 0x1C87 JUMP JUMPDEST PUSH2 0x11A9 JUMP JUMPDEST PUSH1 0x40 MLOAD PUSH2 0x24B SWAP2 SWAP1 PUSH2 0x1F7D JUMP JUMPDEST PUSH1 0x40 MLOAD DUP1 SWAP2 SUB SWAP1 RETURN JUMPDEST PUSH2 0x26E PUSH1 0x4 DUP1 CALLDATASIZE SUB DUP2 ADD SWAP1 PUSH2 0x269 SWAP2 SWAP1 PUSH2 0x1C87 JUMP JUMPDEST PUSH2 0x139F JUMP JUMPDEST PUSH1 0x40 MLOAD PUSH2 0x27D SWAP4 SWAP3 SWAP2 SWAP1 PUSH2 0x2046 JUMP JUMPDEST PUSH1 0x40 MLOAD DUP1 SWAP2 SUB SWAP1 RETURN JUMPDEST PUSH2 0x2A0 PUSH1 0x4 DUP1 CALLDATASIZE SUB DUP2 ADD SWAP1 PUSH2 0x29B SWAP2 SWAP1 PUSH2 0x207B JUMP JUMPDEST PUSH2 0x13E8 JUMP JUMPDEST PUSH1 0x40 MLOAD PUSH2 0x2AD SWAP2 SWAP1 PUSH2 0x2161 JUMP JUMPDEST PUSH1 0x40 MLOAD DUP1 SWAP2 SUB SWAP1 RETURN JUMPDEST PUSH2 0x2D0 PUSH1 0x4 DUP1 CALLDATASIZE SUB DUP2 ADD SWAP1 PUSH2 0x2CB SWAP2 SWAP1 PUSH2 0x1C87 JUMP JUMPDEST PUSH2 0x14F9 JUMP JUMPDEST PUSH1 0x40 MLOAD PUSH2 0x2E2 SWAP7 SWAP6 SWAP5 SWAP4 SWAP3 SWAP2 SWAP1 PUSH2 0x2190 JUMP JUMPDEST PUSH1 0x40 MLOAD DUP1 SWAP2 SUB SWAP1 RETURN JUMPDEST PUSH1 0x4 PUSH1 0x20 MSTORE DUP2 PUSH0 MSTORE PUSH1 0x40 PUSH0 KECCAK256 DUP2 DUP2 SLOAD DUP2 LT PUSH2 0x304 JUMPI PUSH0 DUP1 REVERT JUMPDEST SWAP1 PUSH0 MSTORE PUSH1 0x20 PUSH0 KECCAK256 ADD PUSH0 SWAP2 POP SWAP2 POP POP DUP1 SLOAD PUSH2 0x31D SWAP1 PUSH2 0x2223 JUMP JUMPDEST DUP1 PUSH1 0x1F ADD PUSH1 0x20 DUP1 SWAP2 DIV MUL PUSH1 0x20 ADD PUSH1 0x40 MLOAD SWAP1 DUP2 ADD PUSH1 0x40 MSTORE DUP1 SWAP3 SWAP2 SWAP1 DUP2 DUP2 MSTORE PUSH1 0x20 ADD DUP3 DUP1 SLOAD PUSH2 0x349 SWAP1 PUSH2 0x2223 JUMP JUMPDEST DUP1 ISZERO PUSH2 0x394 JUMPI DUP1 PUSH1 0x1F LT PUSH2 0x36B JUMPI PUSH2 0x100 DUP1 DUP4 SLOAD DIV MUL DUP4 MSTORE SWAP2 PUSH1 0x20 ADD SWAP2 PUSH2 0x394 JUMP JUMPDEST DUP3 ADD SWAP2 SWAP1 PUSH0 MSTORE PUSH1 0x20 PUSH0 KECCAK256 SWAP1 JUMPDEST DUP2 SLOAD DUP2 MSTORE SWAP1 PUSH1 0x1 ADD SWAP1 PUSH1 0x20 ADD DUP1 DUP4 GT PUSH2 0x377 JUMPI DUP3 SWAP1 SUB PUSH1 0x1F AND DUP3 ADD SWAP2 JUMPDEST POP POP POP POP POP DUP2 JUMP JUMPDEST DUP6 MLOAD DUP8 MLOAD EQ PUSH2 0x3E0 JUMPI PUSH1 0x40 MLOAD PUSH32 0x8C379A000000000000000000000000000000000000000000000000000000000 DUP2 MSTORE PUSH1 0x4 ADD PUSH2 0x3D7 SWAP1 PUSH2 0x22C3 JUMP JUMPDEST PUSH1 0x40 MLOAD DUP1 SWAP2 SUB SWAP1 REVERT JUMPDEST DUP4 MLOAD DUP6 MLOAD EQ PUSH2 0x424 JUMPI PUSH1 0x40 MLOAD PUSH32 0x8C379A000000000000000000000000000000000000000000000000000000000 DUP2 MSTORE PUSH1 0x4 ADD PUSH2 0x41B SWAP1 PUSH2 0x232B JUMP JUMPDEST PUSH1 0x40 MLOAD DUP1 SWAP2 SUB SWAP1 REVERT JUMPDEST PUSH0 CALLER SWAP1 POP PUSH0 PUSH0 DUP3 PUSH20 0xFFFFFFFFFFFFFFFFFFFFFFFFFFFFFFFFFFFFFFFF AND PUSH20 0xFFFFFFFFFFFFFFFFFFFFFFFFFFFFFFFFFFFFFFFF AND DUP2 MSTORE PUSH1 0x20 ADD SWAP1 DUP2 MSTORE PUSH1 0x20 ADD PUSH0 KECCAK256 DUP10 PUSH1 0x40 MLOAD PUSH2 0x472 SWAP2 SWAP1 PUSH2 0x2383 JUMP JUMPDEST SWAP1 DUP2 MSTORE PUSH1 0x20 ADD PUSH1 0x40 MLOAD DUP1 SWAP2 SUB SWAP1 KECCAK256 PUSH1 0x5 ADD PUSH0 SWAP1 SLOAD SWAP1 PUSH2 0x100 EXP SWAP1 DIV PUSH1 0xFF AND PUSH2 0x502 JUMPI PUSH1 0x4 PUSH0 DUP3 PUSH20 0xFFFFFFFFFFFFFFFFFFFFFFFFFFFFFFFFFFFFFFFF AND PUSH20 0xFFFFFFFFFFFFFFFFFFFFFFFFFFFFFFFFFFFFFFFF AND DUP2 MSTORE PUSH1 0x20 ADD SWAP1 DUP2 MSTORE PUSH1 0x20 ADD PUSH0 KECCAK256 DUP10 SWAP1 DUP1 PUSH1 0x1 DUP2 SLOAD ADD DUP1 DUP3 SSTORE DUP1 SWAP2 POP POP PUSH1 0x1 SWAP1 SUB SWAP1 PUSH0 MSTORE PUSH1 0x20 PUSH0 KECCAK256 ADD PUSH0 SWAP1 SWAP2 SWAP1 SWAP2 SWAP1 SWAP2 POP SWAP1 DUP2 PUSH2 0x500 SWAP2 SWAP1 PUSH2 0x2539 JUMP JUMPDEST POP JUMPDEST PUSH1 0x40 MLOAD DUP1 PUSH1 0xC0 ADD PUSH1 0x40 MSTORE DUP1 DUP3 PUSH20 0xFFFFFFFFFFFFFFFFFFFFFFFFFFFFFFFFFFFFFFFF AND DUP2 MSTORE PUSH1 0x20 ADD DUP11 DUP2 MSTORE PUSH1 0x20 ADD TIMESTAMP DUP2 MSTORE PUSH1 0x20 ADD DUP10 MLOAD DUP2 MSTORE PUSH1 0x20 ADD DUP8 MLOAD DUP2 MSTORE PUSH1 0x20 ADD PUSH1 0x1 ISZERO ISZERO DUP2 MSTORE POP PUSH0 PUSH0 DUP4 PUSH20 0xFFFFFFFFFFFFFFFFFFFFFFFFFFFFFFFFFFFFFFFF AND PUSH20 0xFFFFFFFFFFFFFFFFFFFFFFFFFFFFFFFFFFFFFFFF AND DUP2 MSTORE PUSH1 0x20 ADD SWAP1 DUP2 MSTORE PUSH1 0x20 ADD PUSH0 KECCAK256 DUP11 PUSH1 0x40 MLOAD PUSH2 0x594 SWAP2 SWAP1 PUSH2 0x2383 JUMP JUMPDEST SWAP1 DUP2 MSTORE PUSH1 0x20 ADD PUSH1 0x40 MLOAD DUP1 SWAP2 SUB SWAP1 KECCAK256 PUSH0 DUP3 ADD MLOAD DUP2 PUSH0 ADD PUSH0 PUSH2 0x100 EXP DUP2 SLOAD DUP2 PUSH20 0xFFFFFFFFFFFFFFFFFFFFFFFFFFFFFFFFFFFFFFFF MUL NOT AND SWAP1 DUP4 PUSH20 0xFFFFFFFFFFFFFFFFFFFFFFFFFFFFFFFFFFFFFFFF AND MUL OR SWAP1 SSTORE POP PUSH1 0x20 DUP3 ADD MLOAD DUP2 PUSH1 0x1 ADD SWAP1 DUP2 PUSH2 0x5FB SWAP2 SWAP1 PUSH2 0x2539 JUMP JUMPDEST POP PUSH1 0x40 DUP3 ADD MLOAD DUP2 PUSH1 0x2 ADD SSTORE PUSH1 0x60 DUP3 ADD MLOAD DUP2 PUSH1 0x3 ADD SSTORE PUSH1 0x80 DUP3 ADD MLOAD DUP2 PUSH1 0x4 ADD SSTORE PUSH1 0xA0 DUP3 ADD MLOAD DUP2 PUSH1 0x5 ADD PUSH0 PUSH2 0x100 EXP DUP2 SLOAD DUP2 PUSH1 0xFF MUL NOT AND SWAP1 DUP4 ISZERO ISZERO MUL OR SWAP1 SSTORE POP SWAP1 POP POP PUSH1 0x1 PUSH0 DUP3 PUSH20 0xFFFFFFFFFFFFFFFFFFFFFFFFFFFFFFFFFFFFFFFF AND PUSH20 0xFFFFFFFFFFFFFFFFFFFFFFFFFFFFFFFFFFFFFFFF AND DUP2 MSTORE PUSH1 0x20 ADD SWAP1 DUP2 MSTORE PUSH1 0x20 ADD PUSH0 KECCAK256 DUP10 PUSH1 0x40 MLOAD PUSH2 0x687 SWAP2 SWAP1 PUSH2 0x2383 JUMP JUMPDEST SWAP1 DUP2 MSTORE PUSH1 0x20 ADD PUSH1 0x40 MLOAD DUP1 SWAP2 SUB SWAP1 KECCAK256 PUSH0 PUSH2 0x6A0 SWAP2 SWAP1 PUSH2 0x1604 JUMP JUMPDEST PUSH1 0x2 PUSH0 DUP3 PUSH20 0xFFFFFFFFFFFFFFFFFFFFFFFFFFFFFFFFFFFFFFFF AND PUSH20 0xFFFFFFFFFFFFFFFFFFFFFFFFFFFFFFFFFFFFFFFF AND DUP2 MSTORE PUSH1 0x20 ADD SWAP1 DUP2 MSTORE PUSH1 0x20 ADD PUSH0 KECCAK256 DUP10 PUSH1 0x40 MLOAD PUSH2 0x6EB SWAP2 SWAP1 PUSH2 0x2383 JUMP JUMPDEST SWAP1 DUP2 MSTORE PUSH1 0x20 ADD PUSH1 0x40 MLOAD DUP1 SWAP2 SUB SWAP1 KECCAK256 PUSH0 PUSH2 0x704 SWAP2 SWAP1 PUSH2 0x1604 JUMP JUMPDEST PUSH0 PUSH0 SWAP1 POP JUMPDEST DUP9 MLOAD DUP2 LT ISZERO PUSH2 0x807 JUMPI PUSH1 0x1 PUSH0 DUP4 PUSH20 0xFFFFFFFFFFFFFFFFFFFFFFFFFFFFFFFFFFFFFFFF AND PUSH20 0xFFFFFFFFFFFFFFFFFFFFFFFFFFFFFFFFFFFFFFFF AND DUP2 MSTORE PUSH1 0x20 ADD SWAP1 DUP2 MSTORE PUSH1 0x20 ADD PUSH0 KECCAK256 DUP11 PUSH1 0x40 MLOAD PUSH2 0x75D SWAP2 SWAP1 PUSH2 0x2383 JUMP JUMPDEST SWAP1 DUP2 MSTORE PUSH1 0x20 ADD PUSH1 0x40 MLOAD DUP1 SWAP2 SUB SWAP1 KECCAK256 PUSH1 0x40 MLOAD DUP1 PUSH1 0x40 ADD PUSH1 0x40 MSTORE DUP1 DUP12 DUP5 DUP2 MLOAD DUP2 LT PUSH2 0x789 JUMPI PUSH2 0x788 PUSH2 0x2608 JUMP JUMPDEST JUMPDEST PUSH1 0x20 MUL PUSH1 0x20 ADD ADD MLOAD DUP2 MSTORE PUSH1 0x20 ADD DUP11 DUP5 DUP2 MLOAD DUP2 LT PUSH2 0x7A9 JUMPI PUSH2 0x7A8 PUSH2 0x2608 JUMP JUMPDEST JUMPDEST PUSH1 0x20 MUL PUSH1 0x20 ADD ADD MLOAD DUP2 MSTORE POP SWAP1 DUP1 PUSH1 0x1 DUP2 SLOAD ADD DUP1 DUP3 SSTORE DUP1 SWAP2 POP POP PUSH1 0x1 SWAP1 SUB SWAP1 PUSH0 MSTORE PUSH1 0x20 PUSH0 KECCAK256 SWAP1 PUSH1 0x2 MUL ADD PUSH0 SWAP1 SWAP2 SWAP1 SWAP2 SWAP1 SWAP2 POP PUSH0 DUP3 ADD MLOAD DUP2 PUSH0 ADD SWAP1 DUP2 PUSH2 0x7ED SWAP2 SWAP1 PUSH2 0x2539 JUMP JUMPDEST POP PUSH1 0x20 DUP3 ADD MLOAD DUP2 PUSH1 0x1 ADD SSTORE POP POP DUP1 DUP1 PUSH1 0x1 ADD SWAP2 POP POP PUSH2 0x709 JUMP JUMPDEST POP PUSH0 PUSH0 SWAP1 POP JUMPDEST DUP7 MLOAD DUP2 LT ISZERO PUSH2 0x90B JUMPI PUSH1 0x2 PUSH0 DUP4 PUSH20 0xFFFFFFFFFFFFFFFFFFFFFFFFFFFFFFFFFFFFFFFF AND PUSH20 0xFFFFFFFFFFFFFFFFFFFFFFFFFFFFFFFFFFFFFFFF AND DUP2 MSTORE PUSH1 0x20 ADD SWAP1 DUP2 MSTORE PUSH1 0x20 ADD PUSH0 KECCAK256 DUP11 PUSH1 0x40 MLOAD PUSH2 0x861 SWAP2 SWAP1 PUSH2 0x2383 JUMP JUMPDEST SWAP1 DUP2 MSTORE PUSH1 0x20 ADD PUSH1 0x40 MLOAD DUP1 SWAP2 SUB SWAP1 KECCAK256 PUSH1 0x40 MLOAD DUP1 PUSH1 0x40 ADD PUSH1 0x40 MSTORE DUP1 DUP10 DUP5 DUP2 MLOAD DUP2 LT PUSH2 0x88D JUMPI PUSH2 0x88C PUSH2 0x2608 JUMP JUMPDEST JUMPDEST PUSH1 0x20 MUL PUSH1 0x20 ADD ADD MLOAD DUP2 MSTORE PUSH1 0x20 ADD DUP9 DUP5 DUP2 MLOAD DUP2 LT PUSH2 0x8AD JUMPI PUSH2 0x8AC PUSH2 0x2608 JUMP JUMPDEST JUMPDEST PUSH1 0x20 MUL PUSH1 0x20 ADD ADD MLOAD DUP2 MSTORE POP SWAP1 DUP1 PUSH1 0x1 DUP2 SLOAD ADD DUP1 DUP3 SSTORE DUP1 SWAP2 POP POP PUSH1 0x1 SWAP1 SUB SWAP1 PUSH0 MSTORE PUSH1 0x20 PUSH0 KECCAK256 SWAP1 PUSH1 0x2 MUL ADD PUSH0 SWAP1 SWAP2 SWAP1 SWAP2 SWAP1 SWAP2 POP PUSH0 DUP3 ADD MLOAD DUP2 PUSH0 ADD SWAP1 DUP2 PUSH2 0x8F1 SWAP2 SWAP1 PUSH2 0x2539 JUMP JUMPDEST POP PUSH1 0x20 DUP3 ADD MLOAD DUP2 PUSH1 0x1 ADD SSTORE POP POP DUP1 DUP1 PUSH1 0x1 ADD SWAP2 POP POP PUSH2 0x80D JUMP JUMPDEST POP PUSH1 0x40 MLOAD DUP1 PUSH1 0x60 ADD PUSH1 0x40 MSTORE DUP1 DUP6 DUP2 MSTORE PUSH1 0x20 ADD DUP5 DUP2 MSTORE PUSH1 0x20 ADD DUP4 DUP2 MSTORE POP PUSH1 0x3 PUSH0 DUP4 PUSH20 0xFFFFFFFFFFFFFFFFFFFFFFFFFFFFFFFFFFFFFFFF AND PUSH20 0xFFFFFFFFFFFFFFFFFFFFFFFFFFFFFFFFFFFFFFFF AND DUP2 MSTORE PUSH1 0x20 ADD SWAP1 DUP2 MSTORE PUSH1 0x20 ADD PUSH0 KECCAK256 DUP11 PUSH1 0x40 MLOAD PUSH2 0x972 SWAP2 SWAP1 PUSH2 0x2383 JUMP JUMPDEST SWAP1 DUP2 MSTORE PUSH1 0x20 ADD PUSH1 0x40 MLOAD DUP1 SWAP2 SUB SWAP1 KECCAK256 PUSH0 DUP3 ADD MLOAD DUP2 PUSH0 ADD SSTORE PUSH1 0x20 DUP3 ADD MLOAD DUP2 PUSH1 0x1 ADD SSTORE PUSH1 0x40 DUP3 ADD MLOAD DUP2 PUSH1 0x2 ADD SSTORE SWAP1 POP POP DUP9 PUSH1 0x40 MLOAD PUSH2 0x9AD SWAP2 SWAP1 PUSH2 0x2383 JUMP JUMPDEST PUSH1 0x40 MLOAD DUP1 SWAP2 SUB SWAP1 KECCAK256 DUP2 PUSH20 0xFFFFFFFFFFFFFFFFFFFFFFFFFFFFFFFFFFFFFFFF AND PUSH32 0x3D5BDF2410FD0A29B93CA35CB3AF63966AEB9B1CC8E0AD75ED0AB81C18B94A84 TIMESTAMP PUSH1 0x40 MLOAD PUSH2 0x9FB SWAP2 SWAP1 PUSH2 0x2635 JUMP JUMPDEST PUSH1 0x40 MLOAD DUP1 SWAP2 SUB SWAP1 LOG3 POP POP POP POP POP POP POP POP POP JUMP JUMPDEST PUSH2 0xA16 PUSH2 0x1625 JUMP JUMPDEST PUSH0 PUSH0 DUP5 PUSH20 0xFFFFFFFFFFFFFFFFFFFFFFFFFFFFFFFFFFFFFFFF AND PUSH20 0xFFFFFFFFFFFFFFFFFFFFFFFFFFFFFFFFFFFFFFFF AND DUP2 MSTORE PUSH1 0x20 ADD SWAP1 DUP2 MSTORE PUSH1 0x20 ADD PUSH0 KECCAK256 DUP3 PUSH1 0x40 MLOAD PUSH2 0xA60 SWAP2 SWAP1 PUSH2 0x2383 JUMP JUMPDEST SWAP1 DUP2 MSTORE PUSH1 0x20 ADD PUSH1 0x40 MLOAD DUP1 SWAP2 SUB SWAP1 KECCAK256 PUSH1 0x5 ADD PUSH0 SWAP1 SLOAD SWAP1 PUSH2 0x100 EXP SWAP1 DIV PUSH1 0xFF AND PUSH2 0xABD JUMPI PUSH1 0x40 MLOAD PUSH32 0x8C379A000000000000000000000000000000000000000000000000000000000 DUP2 MSTORE PUSH1 0x4 ADD PUSH2 0xAB4 SWAP1 PUSH2 0x2698 JUMP JUMPDEST PUSH1 0x40 MLOAD DUP1 SWAP2 SUB SWAP1 REVERT JUMPDEST PUSH1 0x3 PUSH0 DUP5 PUSH20 0xFFFFFFFFFFFFFFFFFFFFFFFFFFFFFFFFFFFFFFFF AND PUSH20 0xFFFFFFFFFFFFFFFFFFFFFFFFFFFFFFFFFFFFFFFF AND DUP2 MSTORE PUSH1 0x20 ADD SWAP1 DUP2 MSTORE PUSH1 0x20 ADD PUSH0 KECCAK256 DUP3 PUSH1 0x40 MLOAD PUSH2 0xB08 SWAP2 SWAP1 PUSH2 0x2383 JUMP JUMPDEST SWAP1 DUP2 MSTORE PUSH1 0x20 ADD PUSH1 0x40 MLOAD DUP1 SWAP2 SUB SWAP1 KECCAK256 PUSH1 0x40 MLOAD DUP1 PUSH1 0x60 ADD PUSH1 0x40 MSTORE SWAP1 DUP2 PUSH0 DUP3 ADD SLOAD DUP2 MSTORE PUSH1 0x20 ADD PUSH1 0x1 DUP3 ADD SLOAD DUP2 MSTORE PUSH1 0x20 ADD PUSH1 0x2 DUP3 ADD SLOAD DUP2 MSTORE POP POP SWAP1 POP SWAP3 SWAP2 POP POP JUMP JUMPDEST PUSH0 PUSH0 PUSH0 DUP5 PUSH20 0xFFFFFFFFFFFFFFFFFFFFFFFFFFFFFFFFFFFFFFFF AND PUSH20 0xFFFFFFFFFFFFFFFFFFFFFFFFFFFFFFFFFFFFFFFF AND DUP2 MSTORE PUSH1 0x20 ADD SWAP1 DUP2 MSTORE PUSH1 0x20 ADD PUSH0 KECCAK256 DUP3 PUSH1 0x40 MLOAD PUSH2 0xB91 SWAP2 SWAP1 PUSH2 0x2383 JUMP JUMPDEST SWAP1 DUP2 MSTORE PUSH1 0x20 ADD PUSH1 0x40 MLOAD DUP1 SWAP2 SUB SWAP1 KECCAK256 PUSH1 0x5 ADD PUSH0 SWAP1 SLOAD SWAP1 PUSH2 0x100 EXP SWAP1 DIV PUSH1 0xFF AND SWAP1 POP SWAP3 SWAP2 POP POP JUMP JUMPDEST PUSH2 0xBBF PUSH2 0x1643 JUMP JUMPDEST PUSH0 PUSH0 DUP5 PUSH20 0xFFFFFFFFFFFFFFFFFFFFFFFFFFFFFFFFFFFFFFFF AND PUSH20 0xFFFFFFFFFFFFFFFFFFFFFFFFFFFFFFFFFFFFFFFF AND DUP2 MSTORE PUSH1 0x20 ADD SWAP1 DUP2 MSTORE PUSH1 0x20 ADD PUSH0 KECCAK256 DUP3 PUSH1 0x40 MLOAD PUSH2 0xC09 SWAP2 SWAP1 PUSH2 0x2383 JUMP JUMPDEST SWAP1 DUP2 MSTORE PUSH1 0x20 ADD PUSH1 0x40 MLOAD DUP1 SWAP2 SUB SWAP1 KECCAK256 PUSH1 0x5 ADD PUSH0 SWAP1 SLOAD SWAP1 PUSH2 0x100 EXP SWAP1 DIV PUSH1 0xFF AND PUSH2 0xC66 JUMPI PUSH1 0x40 MLOAD PUSH32 0x8C379A000000000000000000000000000000000000000000000000000000000 DUP2 MSTORE PUSH1 0x4 ADD PUSH2 0xC5D SWAP1 PUSH2 0x2698 JUMP JUMPDEST PUSH1 0x40 MLOAD DUP1 SWAP2 SUB SWAP1 REVERT JUMPDEST PUSH0 PUSH0 DUP5 PUSH20 0xFFFFFFFFFFFFFFFFFFFFFFFFFFFFFFFFFFFFFFFF AND PUSH20 0xFFFFFFFFFFFFFFFFFFFFFFFFFFFFFFFFFFFFFFFF AND DUP2 MSTORE PUSH1 0x20 ADD SWAP1 DUP2 MSTORE PUSH1 0x20 ADD PUSH0 KECCAK256 DUP3 PUSH1 0x40 MLOAD PUSH2 0xCB0 SWAP2 SWAP1 PUSH2 0x2383 JUMP JUMPDEST SWAP1 DUP2 MSTORE PUSH1 0x20 ADD PUSH1 0x40 MLOAD DUP1 SWAP2 SUB SWAP1 KECCAK256 PUSH1 0x40 MLOAD DUP1 PUSH1 0xC0 ADD PUSH1 0x40 MSTORE SWAP1 DUP2 PUSH0 DUP3 ADD PUSH0 SWAP1 SLOAD SWAP1 PUSH2 0x100 EXP SWAP1 DIV PUSH20 0xFFFFFFFFFFFFFFFFFFFFFFFFFFFFFFFFFFFFFFFF AND PUSH20 0xFFFFFFFFFFFFFFFFFFFFFFFFFFFFFFFFFFFFFFFF AND PUSH20 0xFFFFFFFFFFFFFFFFFFFFFFFFFFFFFFFFFFFFFFFF AND DUP2 MSTORE PUSH1 0x20 ADD PUSH1 0x1 DUP3 ADD DUP1 SLOAD PUSH2 0xD2D SWAP1 PUSH2 0x2223 JUMP JUMPDEST DUP1 PUSH1 0x1F ADD PUSH1 0x20 DUP1 SWAP2 DIV MUL PUSH1 0x20 ADD PUSH1 0x40 MLOAD SWAP1 DUP2 ADD PUSH1 0x40 MSTORE DUP1 SWAP3 SWAP2 SWAP1 DUP2 DUP2 MSTORE PUSH1 0x20 ADD DUP3 DUP1 SLOAD PUSH2 0xD59 SWAP1 PUSH2 0x2223 JUMP JUMPDEST DUP1 ISZERO PUSH2 0xDA4 JUMPI DUP1 PUSH1 0x1F LT PUSH2 0xD7B JUMPI PUSH2 0x100 DUP1 DUP4 SLOAD DIV MUL DUP4 MSTORE SWAP2 PUSH1 0x20 ADD SWAP2 PUSH2 0xDA4 JUMP JUMPDEST DUP3 ADD SWAP2 SWAP1 PUSH0 MSTORE PUSH1 0x20 PUSH0 KECCAK256 SWAP1 JUMPDEST DUP2 SLOAD DUP2 MSTORE SWAP1 PUSH1 0x1 ADD SWAP1 PUSH1 0x20 ADD DUP1 DUP4 GT PUSH2 0xD87 JUMPI DUP3 SWAP1 SUB PUSH1 0x1F AND DUP3 ADD SWAP2 JUMPDEST POP POP POP POP POP DUP2 MSTORE PUSH1 0x20 ADD PUSH1 0x2 DUP3 ADD SLOAD DUP2 MSTORE PUSH1 0x20 ADD PUSH1 0x3 DUP3 ADD SLOAD DUP2 MSTORE PUSH1 0x20 ADD PUSH1 0x4 DUP3 ADD SLOAD DUP2 MSTORE PUSH1 0x20 ADD PUSH1 0x5 DUP3 ADD PUSH0 SWAP1 SLOAD SWAP1 PUSH2 0x100 EXP SWAP1 DIV PUSH1 0xFF AND ISZERO ISZERO ISZERO ISZERO DUP2 MSTORE POP POP SWAP1 POP SWAP3 SWAP2 POP POP JUMP JUMPDEST PUSH1 0x60 PUSH0 PUSH0 DUP5 PUSH20 0xFFFFFFFFFFFFFFFFFFFFFFFFFFFFFFFFFFFFFFFF AND PUSH20 0xFFFFFFFFFFFFFFFFFFFFFFFFFFFFFFFFFFFFFFFF AND DUP2 MSTORE PUSH1 0x20 ADD SWAP1 DUP2 MSTORE PUSH1 0x20 ADD PUSH0 KECCAK256 DUP3 PUSH1 0x40 MLOAD PUSH2 0xE39 SWAP2 SWAP1 PUSH2 0x2383 JUMP JUMPDEST SWAP1 DUP2 MSTORE PUSH1 0x20 ADD PUSH1 0x40 MLOAD DUP1 SWAP2 SUB SWAP1 KECCAK256 PUSH1 0x5 ADD PUSH0 SWAP1 SLOAD SWAP1 PUSH2 0x100 EXP SWAP1 DIV PUSH1 0xFF AND PUSH2 0xE96 JUMPI PUSH1 0x40 MLOAD PUSH32 0x8C379A000000000000000000000000000000000000000000000000000000000 DUP2 MSTORE PUSH1 0x4 ADD PUSH2 0xE8D SWAP1 PUSH2 0x2698 JUMP JUMPDEST PUSH1 0x40 MLOAD DUP1 SWAP2 SUB SWAP1 REVERT JUMPDEST PUSH1 0x2 PUSH0 DUP5 PUSH20 0xFFFFFFFFFFFFFFFFFFFFFFFFFFFFFFFFFFFFFFFF AND PUSH20 0xFFFFFFFFFFFFFFFFFFFFFFFFFFFFFFFFFFFFFFFF AND DUP2 MSTORE PUSH1 0x20 ADD SWAP1 DUP2 MSTORE PUSH1 0x20 ADD PUSH0 KECCAK256 DUP3 PUSH1 0x40 MLOAD PUSH2 0xEE1 SWAP2 SWAP1 PUSH2 0x2383 JUMP JUMPDEST SWAP1 DUP2 MSTORE PUSH1 0x20 ADD PUSH1 0x40 MLOAD DUP1 SWAP2 SUB SWAP1 KECCAK256 DUP1 SLOAD DUP1 PUSH1 0x20 MUL PUSH1 0x20 ADD PUSH1 0x40 MLOAD SWAP1 DUP2 ADD PUSH1 0x40 MSTORE DUP1 SWAP3 SWAP2 SWAP1 DUP2 DUP2 MSTORE PUSH1 0x20 ADD PUSH0 SWAP1 JUMPDEST DUP3 DUP3 LT ISZERO PUSH2 0xFD7 JUMPI DUP4 DUP3 SWAP1 PUSH0 MSTORE PUSH1 0x20 PUSH0 KECCAK256 SWAP1 PUSH1 0x2 MUL ADD PUSH1 0x40 MLOAD DUP1 PUSH1 0x40 ADD PUSH1 0x40 MSTORE SWAP1 DUP2 PUSH0 DUP3 ADD DUP1 SLOAD PUSH2 0xF3E SWAP1 PUSH2 0x2223 JUMP JUMPDEST DUP1 PUSH1 0x1F ADD PUSH1 0x20 DUP1 SWAP2 DIV MUL PUSH1 0x20 ADD PUSH1 0x40 MLOAD SWAP1 DUP2 ADD PUSH1 0x40 MSTORE DUP1 SWAP3 SWAP2 SWAP1 DUP2 DUP2 MSTORE PUSH1 0x20 ADD DUP3 DUP1 SLOAD PUSH2 0xF6A SWAP1 PUSH2 0x2223 JUMP JUMPDEST DUP1 ISZERO PUSH2 0xFB5 JUMPI DUP1 PUSH1 0x1F LT PUSH2 0xF8C JUMPI PUSH2 0x100 DUP1 DUP4 SLOAD DIV MUL DUP4 MSTORE SWAP2 PUSH1 0x20 ADD SWAP2 PUSH2 0xFB5 JUMP JUMPDEST DUP3 ADD SWAP2 SWAP1 PUSH0 MSTORE PUSH1 0x20 PUSH0 KECCAK256 SWAP1 JUMPDEST DUP2 SLOAD DUP2 MSTORE SWAP1 PUSH1 0x1 ADD SWAP1 PUSH1 0x20 ADD DUP1 DUP4 GT PUSH2 0xF98 JUMPI DUP3 SWAP1 SUB PUSH1 0x1F AND DUP3 ADD SWAP2 JUMPDEST POP POP POP POP POP DUP2 MSTORE PUSH1 0x20 ADD PUSH1 0x1 DUP3 ADD SLOAD DUP2 MSTORE POP POP DUP2 MSTORE PUSH1 0x20 ADD SWAP1 PUSH1 0x1 ADD SWAP1 PUSH2 0xF0E JUMP JUMPDEST POP POP POP POP SWAP1 POP SWAP3 SWAP2 POP POP JUMP JUMPDEST PUSH1 0x1 PUSH1 0x20 MSTORE DUP3 PUSH0 MSTORE PUSH1 0x40 PUSH0 KECCAK256 DUP3 DUP1 MLOAD PUSH1 0x20 DUP2 ADD DUP3 ADD DUP1 MLOAD DUP5 DUP3 MSTORE PUSH1 0x20 DUP4 ADD PUSH1 0x20 DUP6 ADD KECCAK256 DUP2 DUP4 MSTORE DUP1 SWAP6 POP POP POP POP POP POP DUP2 DUP2 SLOAD DUP2 LT PUSH2 0x101E JUMPI PUSH0 DUP1 REVERT JUMPDEST SWAP1 PUSH0 MSTORE PUSH1 0x20 PUSH0 KECCAK256 SWAP1 PUSH1 0x2 MUL ADD PUSH0 SWAP3 POP SWAP3 POP POP POP DUP1 PUSH0 ADD DUP1 SLOAD PUSH2 0x103F SWAP1 PUSH2 0x2223 JUMP JUMPDEST DUP1 PUSH1 0x1F ADD PUSH1 0x20 DUP1 SWAP2 DIV MUL PUSH1 0x20 ADD PUSH1 0x40 MLOAD SWAP1 DUP2 ADD PUSH1 0x40 MSTORE DUP1 SWAP3 SWAP2 SWAP1 DUP2 DUP2 MSTORE PUSH1 0x20 ADD DUP3 DUP1 SLOAD PUSH2 0x106B SWAP1 PUSH2 0x2223 JUMP JUMPDEST DUP1 ISZERO PUSH2 0x10B6 JUMPI DUP1 PUSH1 0x1F LT PUSH2 0x108D JUMPI PUSH2 0x100 DUP1 DUP4 SLOAD DIV MUL DUP4 MSTORE SWAP2 PUSH1 0x20 ADD SWAP2 PUSH2 0x10B6 JUMP JUMPDEST DUP3 ADD SWAP2 SWAP1 PUSH0 MSTORE PUSH1 0x20 PUSH0 KECCAK256 SWAP1 JUMPDEST DUP2 SLOAD DUP2 MSTORE SWAP1 PUSH1 0x1 ADD SWAP1 PUSH1 0x20 ADD DUP1 DUP4 GT PUSH2 0x1099 JUMPI DUP3 SWAP1 SUB PUSH1 0x1F AND DUP3 ADD SWAP2 JUMPDEST POP POP POP POP POP SWAP1 DUP1 PUSH1 0x1 ADD SLOAD SWAP1 POP DUP3 JUMP JUMPDEST PUSH1 0x2 PUSH1 0x20 MSTORE DUP3 PUSH0 MSTORE PUSH1 0x40 PUSH0 KECCAK256 DUP3 DUP1 MLOAD PUSH1 0x20 DUP2 ADD DUP3 ADD DUP1 MLOAD DUP5 DUP3 MSTORE PUSH1 0x20 DUP4 ADD PUSH1 0x20 DUP6 ADD KECCAK256 DUP2 DUP4 MSTORE DUP1 SWAP6 POP POP POP POP POP POP DUP2 DUP2 SLOAD DUP2 LT PUSH2 0x1101 JUMPI PUSH0 DUP1 REVERT JUMPDEST SWAP1 PUSH0 MSTORE PUSH1 0x20 PUSH0 KECCAK256 SWAP1 PUSH1 0x2 MUL ADD PUSH0 SWAP3 POP SWAP3 POP POP POP DUP1 PUSH0 ADD DUP1 SLOAD PUSH2 0x1122 SWAP1 PUSH2 0x2223 JUMP JUMPDEST DUP1 PUSH1 0x1F ADD PUSH1 0x20 DUP1 SWAP2 DIV MUL PUSH1 0x20 ADD PUSH1 0x40 MLOAD SWAP1 DUP2 ADD PUSH1 0x40 MSTORE DUP1 SWAP3 SWAP2 SWAP1 DUP2 DUP2 MSTORE PUSH1 0x20 ADD DUP3 DUP1 SLOAD PUSH2 0x114E SWAP1 PUSH2 0x2223 JUMP JUMPDEST DUP1 ISZERO PUSH2 0x1199 JUMPI DUP1 PUSH1 0x1F LT PUSH2 0x1170 JUMPI PUSH2 0x100 DUP1 DUP4 SLOAD DIV MUL DUP4 MSTORE SWAP2 PUSH1 0x20 ADD SWAP2 PUSH2 0x1199 JUMP JUMPDEST DUP3 ADD SWAP2 SWAP1 PUSH0 MSTORE PUSH1 0x20 PUSH0 KECCAK256 SWAP1 JUMPDEST DUP2 SLOAD DUP2 MSTORE SWAP1 PUSH1 0x1 ADD SWAP1 PUSH1 0x20 ADD DUP1 DUP4 GT PUSH2 0x117C JUMPI DUP3 SWAP1 SUB PUSH1 0x1F AND DUP3 ADD SWAP2 JUMPDEST POP POP POP POP POP SWAP1 DUP1 PUSH1 0x1 ADD SLOAD SWAP1 POP DUP3 JUMP JUMPDEST PUSH1 0x60 PUSH0 PUSH0 DUP5 PUSH20 0xFFFFFFFFFFFFFFFFFFFFFFFFFFFFFFFFFFFFFFFF AND PUSH20 0xFFFFFFFFFFFFFFFFFFFFFFFFFFFFFFFFFFFFFFFF AND DUP2 MSTORE PUSH1 0x20 ADD SWAP1 DUP2 MSTORE PUSH1 0x20 ADD PUSH0 KECCAK256 DUP3 PUSH1 0x40 MLOAD PUSH2 0x11F5 SWAP2 SWAP1 PUSH2 0x2383 JUMP JUMPDEST SWAP1 DUP2 MSTORE PUSH1 0x20 ADD PUSH1 0x40 MLOAD DUP1 SWAP2 SUB SWAP1 KECCAK256 PUSH1 0x5 ADD PUSH0 SWAP1 SLOAD SWAP1 PUSH2 0x100 EXP SWAP1 DIV PUSH1 0xFF AND PUSH2 0x1252 JUMPI PUSH1 0x40 MLOAD PUSH32 0x8C379A000000000000000000000000000000000000000000000000000000000 DUP2 MSTORE PUSH1 0x4 ADD PUSH2 0x1249 SWAP1 PUSH2 0x2698 JUMP JUMPDEST PUSH1 0x40 MLOAD DUP1 SWAP2 SUB SWAP1 REVERT JUMPDEST PUSH1 0x1 PUSH0 DUP5 PUSH20 0xFFFFFFFFFFFFFFFFFFFFFFFFFFFFFFFFFFFFFFFF AND PUSH20 0xFFFFFFFFFFFFFFFFFFFFFFFFFFFFFFFFFFFFFFFF AND DUP2 MSTORE PUSH1 0x20 ADD SWAP1 DUP2 MSTORE PUSH1 0x20 ADD PUSH0 KECCAK256 DUP3 PUSH1 0x40 MLOAD PUSH2 0x129D SWAP2 SWAP1 PUSH2 0x2383 JUMP JUMPDEST SWAP1 DUP2 MSTORE PUSH1 0x20 ADD PUSH1 0x40 MLOAD DUP1 SWAP2 SUB SWAP1 KECCAK256 DUP1 SLOAD DUP1 PUSH1 0x20 MUL PUSH1 0x20 ADD PUSH1 0x40 MLOAD SWAP1 DUP2 ADD PUSH1 0x40 MSTORE DUP1 SWAP3 SWAP2 SWAP1 DUP2 DUP2 MSTORE PUSH1 0x20 ADD PUSH0 SWAP1 JUMPDEST DUP3 DUP3 LT ISZERO PUSH2 0x1393 JUMPI DUP4 DUP3 SWAP1 PUSH0 MSTORE PUSH1 0x20 PUSH0 KECCAK256 SWAP1 PUSH1 0x2 MUL ADD PUSH1 0x40 MLOAD DUP1 PUSH1 0x40 ADD PUSH1 0x40 MSTORE SWAP1 DUP2 PUSH0 DUP3 ADD DUP1 SLOAD PUSH2 0x12FA SWAP1 PUSH2 0x2223 JUMP JUMPDEST DUP1 PUSH1 0x1F ADD PUSH1 0x20 DUP1 SWAP2 DIV MUL PUSH1 0x20 ADD PUSH1 0x40 MLOAD SWAP1 DUP2 ADD PUSH1 0x40 MSTORE DUP1 SWAP3 SWAP2 SWAP1 DUP2 DUP2 MSTORE PUSH1 0x20 ADD DUP3 DUP1 SLOAD PUSH2 0x1326 SWAP1 PUSH2 0x2223 JUMP JUMPDEST DUP1 ISZERO PUSH2 0x1371 JUMPI DUP1 PUSH1 0x1F LT PUSH2 0x1348 JUMPI PUSH2 0x100 DUP1 DUP4 SLOAD DIV MUL DUP4 MSTORE SWAP2 PUSH1 0x20 ADD SWAP2 PUSH2 0x1371 JUMP JUMPDEST DUP3 ADD SWAP2 SWAP1 PUSH0 MSTORE PUSH1 0x20 PUSH0 KECCAK256 SWAP1 JUMPDEST DUP2 SLOAD DUP2 MSTORE SWAP1 PUSH1 0x1 ADD SWAP1 PUSH1 0x20 ADD DUP1 DUP4 GT PUSH2 0x1354 JUMPI DUP3 SWAP1 SUB PUSH1 0x1F AND DUP3 ADD SWAP2 JUMPDEST POP POP POP POP POP DUP2 MSTORE PUSH1 0x20 ADD PUSH1 0x1 DUP3 ADD SLOAD DUP2 MSTORE POP POP DUP2 MSTORE PUSH1 0x20 ADD SWAP1 PUSH1 0x1 ADD SWAP1 PUSH2 0x12CA JUMP JUMPDEST POP POP POP POP SWAP1 POP SWAP3 SWAP2 POP POP JUMP JUMPDEST PUSH1 0x3 PUSH1 0x20 MSTORE DUP2 PUSH0 MSTORE PUSH1 0x40 PUSH0 KECCAK256 DUP2 DUP1 MLOAD PUSH1 0x20 DUP2 ADD DUP3 ADD DUP1 MLOAD DUP5 DUP3 MSTORE PUSH1 0x20 DUP4 ADD PUSH1 0x20 DUP6 ADD KECCAK256 DUP2 DUP4 MSTORE DUP1 SWAP6 POP POP POP POP POP POP PUSH0 SWAP2 POP SWAP2 POP POP DUP1 PUSH0 ADD SLOAD SWAP1 DUP1 PUSH1 0x1 ADD SLOAD SWAP1 DUP1 PUSH1 0x2 ADD SLOAD SWAP1 POP DUP4 JUMP JUMPDEST PUSH1 0x60 PUSH1 0x4 PUSH0 DUP4 PUSH20 0xFFFFFFFFFFFFFFFFFFFFFFFFFFFFFFFFFFFFFFFF AND PUSH20 0xFFFFFFFFFFFFFFFFFFFFFFFFFFFFFFFFFFFFFFFF AND DUP2 MSTORE PUSH1 0x20 ADD SWAP1 DUP2 MSTORE PUSH1 0x20 ADD PUSH0 KECCAK256 DUP1 SLOAD DUP1 PUSH1 0x20 MUL PUSH1 0x20 ADD PUSH1 0x40 MLOAD SWAP1 DUP2 ADD PUSH1 0x40 MSTORE DUP1 SWAP3 SWAP2 SWAP1 DUP2 DUP2 MSTORE PUSH1 0x20 ADD PUSH0 SWAP1 JUMPDEST DUP3 DUP3 LT ISZERO PUSH2 0x14EE JUMPI DUP4 DUP3 SWAP1 PUSH0 MSTORE PUSH1 0x20 PUSH0 KECCAK256 ADD DUP1 SLOAD PUSH2 0x1463 SWAP1 PUSH2 0x2223 JUMP JUMPDEST DUP1 PUSH1 0x1F ADD PUSH1 0x20 DUP1 SWAP2 DIV MUL PUSH1 0x20 ADD PUSH1 0x40 MLOAD SWAP1 DUP2 ADD PUSH1 0x40 MSTORE DUP1 SWAP3 SWAP2 SWAP1 DUP2 DUP2 MSTORE PUSH1 0x20 ADD DUP3 DUP1 SLOAD PUSH2 0x148F SWAP1 PUSH2 0x2223 JUMP JUMPDEST DUP1 ISZERO PUSH2 0x14DA JUMPI DUP1 PUSH1 0x1F LT PUSH2 0x14B1 JUMPI PUSH2 0x100 DUP1 DUP4 SLOAD DIV MUL DUP4 MSTORE SWAP2 PUSH1 0x20 ADD SWAP2 PUSH2 0x14DA JUMP JUMPDEST DUP3 ADD SWAP2 SWAP1 PUSH0 MSTORE PUSH1 0x20 PUSH0 KECCAK256 SWAP1 JUMPDEST DUP2 SLOAD DUP2 MSTORE SWAP1 PUSH1 0x1 ADD SWAP1 PUSH1 0x20 ADD DUP1 DUP4 GT PUSH2 0x14BD JUMPI DUP3 SWAP1 SUB PUSH1 0x1F AND DUP3 ADD SWAP2 JUMPDEST POP POP POP POP POP DUP2 MSTORE PUSH1 0x20 ADD SWAP1 PUSH1 0x1 ADD SWAP1 PUSH2 0x1446 JUMP JUMPDEST POP POP POP POP SWAP1 POP SWAP2 SWAP1 POP JUMP JUMPDEST PUSH0 PUSH1 0x20 MSTORE DUP2 PUSH0 MSTORE PUSH1 0x40 PUSH0 KECCAK256 DUP2 DUP1 MLOAD PUSH1 0x20 DUP2 ADD DUP3 ADD DUP1 MLOAD DUP5 DUP3 MSTORE PUSH1 0x20 DUP4 ADD PUSH1 0x20 DUP6 ADD KECCAK256 DUP2 DUP4 MSTORE DUP1 SWAP6 POP POP POP POP POP POP PUSH0 SWAP2 POP SWAP2 POP POP DUP1 PUSH0 ADD PUSH0 SWAP1 SLOAD SWAP1 PUSH2 0x100 EXP SWAP1 DIV PUSH20 0xFFFFFFFFFFFFFFFFFFFFFFFFFFFFFFFFFFFFFFFF AND SWAP1 DUP1 PUSH1 0x1 ADD DUP1 SLOAD PUSH2 0x155F SWAP1 PUSH2 0x2223 JUMP JUMPDEST DUP1 PUSH1 0x1F ADD PUSH1 0x20 DUP1 SWAP2 DIV MUL PUSH1 0x20 ADD PUSH1 0x40 MLOAD SWAP1 DUP2 ADD PUSH1 0x40 MSTORE DUP1 SWAP3 SWAP2 SWAP1 DUP2 DUP2 MSTORE PUSH1 0x20 ADD DUP3 DUP1 SLOAD PUSH2 0x158B SWAP1 PUSH2 0x2223 JUMP JUMPDEST DUP1 ISZERO PUSH2 0x15D6 JUMPI DUP1 PUSH1 0x1F LT PUSH2 0x15AD JUMPI PUSH2 0x100 DUP1 DUP4 SLOAD DIV MUL DUP4 MSTORE SWAP2 PUSH1 0x20 ADD SWAP2 PUSH2 0x15D6 JUMP JUMPDEST DUP3 ADD SWAP2 SWAP1 PUSH0 MSTORE PUSH1 0x20 PUSH0 KECCAK256 SWAP1 JUMPDEST DUP2 SLOAD DUP2 MSTORE SWAP1 PUSH1 0x1 ADD SWAP1 PUSH1 0x20 ADD DUP1 DUP4 GT PUSH2 0x15B9 JUMPI DUP3 SWAP1 SUB PUSH1 0x1F AND DUP3 ADD SWAP2 JUMPDEST POP POP POP POP POP SWAP1 DUP1 PUSH1 0x2 ADD SLOAD SWAP1 DUP1 PUSH1 0x3 ADD SLOAD SWAP1 DUP1 PUSH1 0x4 ADD SLOAD SWAP1 DUP1 PUSH1 0x5 ADD PUSH0 SWAP1 SLOAD SWAP1 PUSH2 0x100 EXP SWAP1 DIV PUSH1 0xFF AND SWAP1 POP DUP7 JUMP JUMPDEST POP DUP1 SLOAD PUSH0 DUP3 SSTORE PUSH1 0x2 MUL SWAP1 PUSH0 MSTORE PUSH1 0x20 PUSH0 KECCAK256 SWAP1 DUP2 ADD SWAP1 PUSH2 0x1622 SWAP2 SWAP1 PUSH2 0x168C JUMP JUMPDEST POP JUMP JUMPDEST PUSH1 0x40 MLOAD DUP1 PUSH1 0x60 ADD PUSH1 0x40 MSTORE DUP1 PUSH0 DUP2 MSTORE PUSH1 0x20 ADD PUSH0 DUP2 MSTORE PUSH1 0x20 ADD PUSH0 DUP2 MSTORE POP SWAP1 JUMP JUMPDEST PUSH1 0x40 MLOAD DUP1 PUSH1 0xC0 ADD PUSH1 0x40 MSTORE DUP1 PUSH0 PUSH20 0xFFFFFFFFFFFFFFFFFFFFFFFFFFFFFFFFFFFFFFFF AND DUP2 MSTORE PUSH1 0x20 ADD PUSH1 0x60 DUP2 MSTORE PUSH1 0x20 ADD PUSH0 DUP2 MSTORE PUSH1 0x20 ADD PUSH0 DUP2 MSTORE PUSH1 0x20 ADD PUSH0 DUP2 MSTORE PUSH1 0x20 ADD PUSH0 ISZERO ISZERO DUP2 MSTORE POP SWAP1 JUMP JUMPDEST JUMPDEST DUP1 DUP3 GT ISZERO PUSH2 0x16B4 JUMPI PUSH0 PUSH0 DUP3 ADD PUSH0 PUSH2 0x16A4 SWAP2 SWAP1 PUSH2 0x16B8 JUMP JUMPDEST PUSH1 0x1 DUP3 ADD PUSH0 SWAP1 SSTORE POP PUSH1 0x2 ADD PUSH2 0x168D JUMP JUMPDEST POP SWAP1 JUMP JUMPDEST POP DUP1 SLOAD PUSH2 0x16C4 SWAP1 PUSH2 0x2223 JUMP JUMPDEST PUSH0 DUP3 SSTORE DUP1 PUSH1 0x1F LT PUSH2 0x16D5 JUMPI POP PUSH2 0x16F2 JUMP JUMPDEST PUSH1 0x1F ADD PUSH1 0x20 SWAP1 DIV SWAP1 PUSH0 MSTORE PUSH1 0x20 PUSH0 KECCAK256 SWAP1 DUP2 ADD SWAP1 PUSH2 0x16F1 SWAP2 SWAP1 PUSH2 0x16F5 JUMP JUMPDEST JUMPDEST POP JUMP JUMPDEST JUMPDEST DUP1 DUP3 GT ISZERO PUSH2 0x170C JUMPI PUSH0 DUP2 PUSH0 SWAP1 SSTORE POP PUSH1 0x1 ADD PUSH2 0x16F6 JUMP JUMPDEST POP SWAP1 JUMP JUMPDEST PUSH0 PUSH1 0x40 MLOAD SWAP1 POP SWAP1 JUMP JUMPDEST PUSH0 PUSH0 REVERT JUMPDEST PUSH0 PUSH0 REVERT JUMPDEST PUSH0 PUSH20 0xFFFFFFFFFFFFFFFFFFFFFFFFFFFFFFFFFFFFFFFF DUP3 AND SWAP1 POP SWAP2 SWAP1 POP JUMP JUMPDEST PUSH0 PUSH2 0x174A DUP3 PUSH2 0x1721 JUMP JUMPDEST SWAP1 POP SWAP2 SWAP1 POP JUMP JUMPDEST PUSH2 0x175A DUP2 PUSH2 0x1740 JUMP JUMPDEST DUP2 EQ PUSH2 0x1764 JUMPI PUSH0 PUSH0 REVERT JUMPDEST POP JUMP JUMPDEST PUSH0 DUP2 CALLDATALOAD SWAP1 POP PUSH2 0x1775 DUP2 PUSH2 0x1751 JUMP JUMPDEST SWAP3 SWAP2 POP POP JUMP JUMPDEST PUSH0 DUP2 SWAP1 POP SWAP2 SWAP1 POP JUMP JUMPDEST PUSH2 0x178D DUP2 PUSH2 0x177B JUMP JUMPDEST DUP2 EQ PUSH2 0x1797 JUMPI PUSH0 PUSH0 REVERT JUMPDEST POP JUMP JUMPDEST PUSH0 DUP2 CALLDATALOAD SWAP1 POP PUSH2 0x17A8 DUP2 PUSH2 0x1784 JUMP JUMPDEST SWAP3 SWAP2 POP POP JUMP JUMPDEST PUSH0 PUSH0 PUSH1 0x40 DUP4 DUP6 SUB SLT ISZERO PUSH2 0x17C4 JUMPI PUSH2 0x17C3 PUSH2 0x1719 JUMP JUMPDEST JUMPDEST PUSH0 PUSH2 0x17D1 DUP6 DUP3 DUP7 ADD PUSH2 0x1767 JUMP JUMPDEST SWAP3 POP POP PUSH1 0x20 PUSH2 0x17E2 DUP6 DUP3 DUP7 ADD PUSH2 0x179A JUMP JUMPDEST SWAP2 POP POP SWAP3 POP SWAP3 SWAP1 POP JUMP JUMPDEST PUSH0 DUP2 MLOAD SWAP1 POP SWAP2 SWAP1 POP JUMP JUMPDEST PUSH0 DUP3 DUP3 MSTORE PUSH1 0x20 DUP3 ADD SWAP1 POP SWAP3 SWAP2 POP POP JUMP JUMPDEST DUP3 DUP2 DUP4 MCOPY PUSH0 DUP4 DUP4 ADD MSTORE POP POP POP JUMP JUMPDEST PUSH0 PUSH1 0x1F NOT PUSH1 0x1F DUP4 ADD AND SWAP1 POP SWAP2 SWAP1 POP JUMP JUMPDEST PUSH0 PUSH2 0x182E DUP3 PUSH2 0x17EC JUMP JUMPDEST PUSH2 0x1838 DUP2 DUP6 PUSH2 0x17F6 JUMP JUMPDEST SWAP4 POP PUSH2 0x1848 DUP2 DUP6 PUSH1 0x20 DUP7 ADD PUSH2 0x1806 JUMP JUMPDEST PUSH2 0x1851 DUP2 PUSH2 0x1814 JUMP JUMPDEST DUP5 ADD SWAP2 POP POP SWAP3 SWAP2 POP POP JUMP JUMPDEST PUSH0 PUSH1 0x20 DUP3 ADD SWAP1 POP DUP2 DUP2 SUB PUSH0 DUP4 ADD MSTORE PUSH2 0x1874 DUP2 DUP5 PUSH2 0x1824 JUMP JUMPDEST SWAP1 POP SWAP3 SWAP2 POP POP JUMP JUMPDEST PUSH0 PUSH0 REVERT JUMPDEST PUSH0 PUSH0 REVERT JUMPDEST PUSH32 0x4E487B7100000000000000000000000000000000000000000000000000000000 PUSH0 MSTORE PUSH1 0x41 PUSH1 0x4 MSTORE PUSH1 0x24 PUSH0 REVERT JUMPDEST PUSH2 0x18BA DUP3 PUSH2 0x1814 JUMP JUMPDEST DUP2 ADD DUP2 DUP2 LT PUSH8 0xFFFFFFFFFFFFFFFF DUP3 GT OR ISZERO PUSH2 0x18D9 JUMPI PUSH2 0x18D8 PUSH2 0x1884 JUMP JUMPDEST JUMPDEST DUP1 PUSH1 0x40 MSTORE POP POP POP JUMP JUMPDEST PUSH0 PUSH2 0x18EB PUSH2 0x1710 JUMP JUMPDEST SWAP1 POP PUSH2 0x18F7 DUP3 DUP3 PUSH2 0x18B1 JUMP JUMPDEST SWAP2 SWAP1 POP JUMP JUMPDEST PUSH0 PUSH8 0xFFFFFFFFFFFFFFFF DUP3 GT ISZERO PUSH2 0x1916 JUMPI PUSH2 0x1915 PUSH2 0x1884 JUMP JUMPDEST JUMPDEST PUSH2 0x191F DUP3 PUSH2 0x1814 JUMP JUMPDEST SWAP1 POP PUSH1 0x20 DUP2 ADD SWAP1 POP SWAP2 SWAP1 POP JUMP JUMPDEST DUP3 DUP2 DUP4 CALLDATACOPY PUSH0 DUP4 DUP4 ADD MSTORE POP POP POP JUMP JUMPDEST PUSH0 PUSH2 0x194C PUSH2 0x1947 DUP5 PUSH2 0x18FC JUMP JUMPDEST PUSH2 0x18E2 JUMP JUMPDEST SWAP1 POP DUP3 DUP2 MSTORE PUSH1 0x20 DUP2 ADD DUP5 DUP5 DUP5 ADD GT ISZERO PUSH2 0x1968 JUMPI PUSH2 0x1967 PUSH2 0x1880 JUMP JUMPDEST JUMPDEST PUSH2 0x1973 DUP5 DUP3 DUP6 PUSH2 0x192C JUMP JUMPDEST POP SWAP4 SWAP3 POP POP POP JUMP JUMPDEST PUSH0 DUP3 PUSH1 0x1F DUP4 ADD SLT PUSH2 0x198F JUMPI PUSH2 0x198E PUSH2 0x187C JUMP JUMPDEST JUMPDEST DUP2 CALLDATALOAD PUSH2 0x199F DUP5 DUP3 PUSH1 0x20 DUP7 ADD PUSH2 0x193A JUMP JUMPDEST SWAP2 POP POP SWAP3 SWAP2 POP POP JUMP JUMPDEST PUSH0 PUSH8 0xFFFFFFFFFFFFFFFF DUP3 GT ISZERO PUSH2 0x19C2 JUMPI PUSH2 0x19C1 PUSH2 0x1884 JUMP JUMPDEST JUMPDEST PUSH1 0x20 DUP3 MUL SWAP1 POP PUSH1 0x20 DUP2 ADD SWAP1 POP SWAP2 SWAP1 POP JUMP JUMPDEST PUSH0 PUSH0 REVERT JUMPDEST PUSH0 PUSH2 0x19E9 PUSH2 0x19E4 DUP5 PUSH2 0x19A8 JUMP JUMPDEST PUSH2 0x18E2 JUMP JUMPDEST SWAP1 POP DUP1 DUP4 DUP3 MSTORE PUSH1 0x20 DUP3 ADD SWAP1 POP PUSH1 0x20 DUP5 MUL DUP4 ADD DUP6 DUP2 GT ISZERO PUSH2 0x1A0C JUMPI PUSH2 0x1A0B PUSH2 0x19D3 JUMP JUMPDEST JUMPDEST DUP4 JUMPDEST DUP2 DUP2 LT ISZERO PUSH2 0x1A53 JUMPI DUP1 CALLDATALOAD PUSH8 0xFFFFFFFFFFFFFFFF DUP2 GT ISZERO PUSH2 0x1A31 JUMPI PUSH2 0x1A30 PUSH2 0x187C JUMP JUMPDEST JUMPDEST DUP1 DUP7 ADD PUSH2 0x1A3E DUP10 DUP3 PUSH2 0x197B JUMP JUMPDEST DUP6 MSTORE PUSH1 0x20 DUP6 ADD SWAP5 POP POP POP PUSH1 0x20 DUP2 ADD SWAP1 POP PUSH2 0x1A0E JUMP JUMPDEST POP POP POP SWAP4 SWAP3 POP POP POP JUMP JUMPDEST PUSH0 DUP3 PUSH1 0x1F DUP4 ADD SLT PUSH2 0x1A71 JUMPI PUSH2 0x1A70 PUSH2 0x187C JUMP JUMPDEST JUMPDEST DUP2 CALLDATALOAD PUSH2 0x1A81 DUP5 DUP3 PUSH1 0x20 DUP7 ADD PUSH2 0x19D7 JUMP JUMPDEST SWAP2 POP POP SWAP3 SWAP2 POP POP JUMP JUMPDEST PUSH0 PUSH8 0xFFFFFFFFFFFFFFFF DUP3 GT ISZERO PUSH2 0x1AA4 JUMPI PUSH2 0x1AA3 PUSH2 0x1884 JUMP JUMPDEST JUMPDEST PUSH1 0x20 DUP3 MUL SWAP1 POP PUSH1 0x20 DUP2 ADD SWAP1 POP SWAP2 SWAP1 POP JUMP JUMPDEST PUSH0 PUSH2 0x1AC7 PUSH2 0x1AC2 DUP5 PUSH2 0x1A8A JUMP JUMPDEST PUSH2 0x18E2 JUMP JUMPDEST SWAP1 POP DUP1 DUP4 DUP3 MSTORE PUSH1 0x20 DUP3 ADD SWAP1 POP PUSH1 0x20 DUP5 MUL DUP4 ADD DUP6 DUP2 GT ISZERO PUSH2 0x1AEA JUMPI PUSH2 0x1AE9 PUSH2 0x19D3 JUMP JUMPDEST JUMPDEST DUP4 JUMPDEST DUP2 DUP2 LT ISZERO PUSH2 0x1B13 JUMPI DUP1 PUSH2 0x1AFF DUP9 DUP3 PUSH2 0x179A JUMP JUMPDEST DUP5 MSTORE PUSH1 0x20 DUP5 ADD SWAP4 POP POP PUSH1 0x20 DUP2 ADD SWAP1 POP PUSH2 0x1AEC JUMP JUMPDEST POP POP POP SWAP4 SWAP3 POP POP POP JUMP JUMPDEST PUSH0 DUP3 PUSH1 0x1F DUP4 ADD SLT PUSH2 0x1B31 JUMPI PUSH2 0x1B30 PUSH2 0x187C JUMP JUMPDEST JUMPDEST DUP2 CALLDATALOAD PUSH2 0x1B41 DUP5 DUP3 PUSH1 0x20 DUP7 ADD PUSH2 0x1AB5 JUMP JUMPDEST SWAP2 POP POP SWAP3 SWAP2 POP POP JUMP JUMPDEST PUSH0 PUSH0 PUSH0 PUSH0 PUSH0 PUSH0 PUSH0 PUSH0 PUSH2 0x100 DUP10 DUP12 SUB SLT ISZERO PUSH2 0x1B67 JUMPI PUSH2 0x1B66 PUSH2 0x1719 JUMP JUMPDEST JUMPDEST PUSH0 DUP10 ADD CALLDATALOAD PUSH8 0xFFFFFFFFFFFFFFFF DUP2 GT ISZERO PUSH2 0x1B84 JUMPI PUSH2 0x1B83 PUSH2 0x171D JUMP JUMPDEST JUMPDEST PUSH2 0x1B90 DUP12 DUP3 DUP13 ADD PUSH2 0x197B JUMP JUMPDEST SWAP9 POP POP PUSH1 0x20 DUP10 ADD CALLDATALOAD PUSH8 0xFFFFFFFFFFFFFFFF DUP2 GT ISZERO PUSH2 0x1BB1 JUMPI PUSH2 0x1BB0 PUSH2 0x171D JUMP JUMPDEST JUMPDEST PUSH2 0x1BBD DUP12 DUP3 DUP13 ADD PUSH2 0x1A5D JUMP JUMPDEST SWAP8 POP POP PUSH1 0x40 DUP10 ADD CALLDATALOAD PUSH8 0xFFFFFFFFFFFFFFFF DUP2 GT ISZERO PUSH2 0x1BDE JUMPI PUSH2 0x1BDD PUSH2 0x171D JUMP JUMPDEST JUMPDEST PUSH2 0x1BEA DUP12 DUP3 DUP13 ADD PUSH2 0x1B1D JUMP JUMPDEST SWAP7 POP POP PUSH1 0x60 DUP10 ADD CALLDATALOAD PUSH8 0xFFFFFFFFFFFFFFFF DUP2 GT ISZERO PUSH2 0x1C0B JUMPI PUSH2 0x1C0A PUSH2 0x171D JUMP JUMPDEST JUMPDEST PUSH2 0x1C17 DUP12 DUP3 DUP13 ADD PUSH2 0x1A5D JUMP JUMPDEST SWAP6 POP POP PUSH1 0x80 DUP10 ADD CALLDATALOAD PUSH8 0xFFFFFFFFFFFFFFFF DUP2 GT ISZERO PUSH2 0x1C38 JUMPI PUSH2 0x1C37 PUSH2 0x171D JUMP JUMPDEST JUMPDEST PUSH2 0x1C44 DUP12 DUP3 DUP13 ADD PUSH2 0x1B1D JUMP JUMPDEST SWAP5 POP POP PUSH1 0xA0 PUSH2 0x1C55 DUP12 DUP3 DUP13 ADD PUSH2 0x179A JUMP JUMPDEST SWAP4 POP POP PUSH1 0xC0 PUSH2 0x1C66 DUP12 DUP3 DUP13 ADD PUSH2 0x179A JUMP JUMPDEST SWAP3 POP POP PUSH1 0xE0 PUSH2 0x1C77 DUP12 DUP3 DUP13 ADD PUSH2 0x179A JUMP JUMPDEST SWAP2 POP POP SWAP3 SWAP6 SWAP9 POP SWAP3 SWAP6 SWAP9 SWAP1 SWAP4 SWAP7 POP JUMP JUMPDEST PUSH0 PUSH0 PUSH1 0x40 DUP4 DUP6 SUB SLT ISZERO PUSH2 0x1C9D JUMPI PUSH2 0x1C9C PUSH2 0x1719 JUMP JUMPDEST JUMPDEST PUSH0 PUSH2 0x1CAA DUP6 DUP3 DUP7 ADD PUSH2 0x1767 JUMP JUMPDEST SWAP3 POP POP PUSH1 0x20 DUP4 ADD CALLDATALOAD PUSH8 0xFFFFFFFFFFFFFFFF DUP2 GT ISZERO PUSH2 0x1CCB JUMPI PUSH2 0x1CCA PUSH2 0x171D JUMP JUMPDEST JUMPDEST PUSH2 0x1CD7 DUP6 DUP3 DUP7 ADD PUSH2 0x197B JUMP JUMPDEST SWAP2 POP POP SWAP3 POP SWAP3 SWAP1 POP JUMP JUMPDEST PUSH2 0x1CEA DUP2 PUSH2 0x177B JUMP JUMPDEST DUP3 MSTORE POP POP JUMP JUMPDEST PUSH1 0x60 DUP3 ADD PUSH0 DUP3 ADD MLOAD PUSH2 0x1D04 PUSH0 DUP6 ADD DUP3 PUSH2 0x1CE1 JUMP JUMPDEST POP PUSH1 0x20 DUP3 ADD MLOAD PUSH2 0x1D17 PUSH1 0x20 DUP6 ADD DUP3 PUSH2 0x1CE1 JUMP JUMPDEST POP PUSH1 0x40 DUP3 ADD MLOAD PUSH2 0x1D2A PUSH1 0x40 DUP6 ADD DUP3 PUSH2 0x1CE1 JUMP JUMPDEST POP POP POP POP JUMP JUMPDEST PUSH0 PUSH1 0x60 DUP3 ADD SWAP1 POP PUSH2 0x1D43 PUSH0 DUP4 ADD DUP5 PUSH2 0x1CF0 JUMP JUMPDEST SWAP3 SWAP2 POP POP JUMP JUMPDEST PUSH0 DUP2 ISZERO ISZERO SWAP1 POP SWAP2 SWAP1 POP JUMP JUMPDEST PUSH2 0x1D5D DUP2 PUSH2 0x1D49 JUMP JUMPDEST DUP3 MSTORE POP POP JUMP JUMPDEST PUSH0 PUSH1 0x20 DUP3 ADD SWAP1 POP PUSH2 0x1D76 PUSH0 DUP4 ADD DUP5 PUSH2 0x1D54 JUMP JUMPDEST SWAP3 SWAP2 POP POP JUMP JUMPDEST PUSH2 0x1D85 DUP2 PUSH2 0x1740 JUMP JUMPDEST DUP3 MSTORE POP POP JUMP JUMPDEST PUSH0 DUP3 DUP3 MSTORE PUSH1 0x20 DUP3 ADD SWAP1 POP SWAP3 SWAP2 POP POP JUMP JUMPDEST PUSH0 PUSH2 0x1DA5 DUP3 PUSH2 0x17EC JUMP JUMPDEST PUSH2 0x1DAF DUP2 DUP6 PUSH2 0x1D8B JUMP JUMPDEST SWAP4 POP PUSH2 0x1DBF DUP2 DUP6 PUSH1 0x20 DUP7 ADD PUSH2 0x1806 JUMP JUMPDEST PUSH2 0x1DC8 DUP2 PUSH2 0x1814 JUMP JUMPDEST DUP5 ADD SWAP2 POP POP SWAP3 SWAP2 POP POP JUMP JUMPDEST PUSH2 0x1DDC DUP2 PUSH2 0x1D49 JUMP JUMPDEST DUP3 MSTORE POP POP JUMP JUMPDEST PUSH0 PUSH1 0xC0 DUP4 ADD PUSH0 DUP4 ADD MLOAD PUSH2 0x1DF7 PUSH0 DUP7 ADD DUP3 PUSH2 0x1D7C JUMP JUMPDEST POP PUSH1 0x20 DUP4 ADD MLOAD DUP5 DUP3 SUB PUSH1 0x20 DUP7 ADD MSTORE PUSH2 0x1E0F DUP3 DUP3 PUSH2 0x1D9B JUMP JUMPDEST SWAP2 POP POP PUSH1 0x40 DUP4 ADD MLOAD PUSH2 0x1E24 PUSH1 0x40 DUP7 ADD DUP3 PUSH2 0x1CE1 JUMP JUMPDEST POP PUSH1 0x60 DUP4 ADD MLOAD PUSH2 0x1E37 PUSH1 0x60 DUP7 ADD DUP3 PUSH2 0x1CE1 JUMP JUMPDEST POP PUSH1 0x80 DUP4 ADD MLOAD PUSH2 0x1E4A PUSH1 0x80 DUP7 ADD DUP3 PUSH2 0x1CE1 JUMP JUMPDEST POP PUSH1 0xA0 DUP4 ADD MLOAD PUSH2 0x1E5D PUSH1 0xA0 DUP7 ADD DUP3 PUSH2 0x1DD3 JUMP JUMPDEST POP DUP1 SWAP2 POP POP SWAP3 SWAP2 POP POP JUMP JUMPDEST PUSH0 PUSH1 0x20 DUP3 ADD SWAP1 POP DUP2 DUP2 SUB PUSH0 DUP4 ADD MSTORE PUSH2 0x1E80 DUP2 DUP5 PUSH2 0x1DE2 JUMP JUMPDEST SWAP1 POP SWAP3 SWAP2 POP POP JUMP JUMPDEST PUSH0 DUP2 MLOAD SWAP1 POP SWAP2 SWAP1 POP JUMP JUMPDEST PUSH0 DUP3 DUP3 MSTORE PUSH1 0x20 DUP3 ADD SWAP1 POP SWAP3 SWAP2 POP POP JUMP JUMPDEST PUSH0 DUP2 SWAP1 POP PUSH1 0x20 DUP3 ADD SWAP1 POP SWAP2 SWAP1 POP JUMP JUMPDEST PUSH0 PUSH1 0x40 DUP4 ADD PUSH0 DUP4 ADD MLOAD DUP5 DUP3 SUB PUSH0 DUP7 ADD MSTORE PUSH2 0x1ECB DUP3 DUP3 PUSH2 0x1D9B JUMP JUMPDEST SWAP2 POP POP PUSH1 0x20 DUP4 ADD MLOAD PUSH2 0x1EE0 PUSH1 0x20 DUP7 ADD DUP3 PUSH2 0x1CE1 JUMP JUMPDEST POP DUP1 SWAP2 POP POP SWAP3 SWAP2 POP POP JUMP JUMPDEST PUSH0 PUSH2 0x1EF6 DUP4 DUP4 PUSH2 0x1EB1 JUMP JUMPDEST SWAP1 POP SWAP3 SWAP2 POP POP JUMP JUMPDEST PUSH0 PUSH1 0x20 DUP3 ADD SWAP1 POP SWAP2 SWAP1 POP JUMP JUMPDEST PUSH0 PUSH2 0x1F14 DUP3 PUSH2 0x1E88 JUMP JUMPDEST PUSH2 0x1F1E DUP2 DUP6 PUSH2 0x1E92 JUMP JUMPDEST SWAP4 POP DUP4 PUSH1 0x20 DUP3 MUL DUP6 ADD PUSH2 0x1F30 DUP6 PUSH2 0x1EA2 JUMP JUMPDEST DUP1 PUSH0 JUMPDEST DUP6 DUP2 LT ISZERO PUSH2 0x1F6B JUMPI DUP5 DUP5 SUB DUP10 MSTORE DUP2 MLOAD PUSH2 0x1F4C DUP6 DUP3 PUSH2 0x1EEB JUMP JUMPDEST SWAP5 POP PUSH2 0x1F57 DUP4 PUSH2 0x1EFE JUMP JUMPDEST SWAP3 POP PUSH1 0x20 DUP11 ADD SWAP10 POP POP PUSH1 0x1 DUP2 ADD SWAP1 POP PUSH2 0x1F33 JUMP JUMPDEST POP DUP3 SWAP8 POP DUP8 SWAP6 POP POP POP POP POP POP SWAP3 SWAP2 POP POP JUMP JUMPDEST PUSH0 PUSH1 0x20 DUP3 ADD SWAP1 POP DUP2 DUP2 SUB PUSH0 DUP4 ADD MSTORE PUSH2 0x1F95 DUP2 DUP5 PUSH2 0x1F0A JUMP JUMPDEST SWAP1 POP SWAP3 SWAP2 POP POP JUMP JUMPDEST PUSH0 PUSH0 PUSH0 PUSH1 0x60 DUP5 DUP7 SUB SLT ISZERO PUSH2 0x1FB4 JUMPI PUSH2 0x1FB3 PUSH2 0x1719 JUMP JUMPDEST JUMPDEST PUSH0 PUSH2 0x1FC1 DUP7 DUP3 DUP8 ADD PUSH2 0x1767 JUMP JUMPDEST SWAP4 POP POP PUSH1 0x20 DUP5 ADD CALLDATALOAD PUSH8 0xFFFFFFFFFFFFFFFF DUP2 GT ISZERO PUSH2 0x1FE2 JUMPI PUSH2 0x1FE1 PUSH2 0x171D JUMP JUMPDEST JUMPDEST PUSH2 0x1FEE DUP7 DUP3 DUP8 ADD PUSH2 0x197B JUMP JUMPDEST SWAP3 POP POP PUSH1 0x40 PUSH2 0x1FFF DUP7 DUP3 DUP8 ADD PUSH2 0x179A JUMP JUMPDEST SWAP2 POP POP SWAP3 POP SWAP3 POP SWAP3 JUMP JUMPDEST PUSH2 0x2012 DUP2 PUSH2 0x177B JUMP JUMPDEST DUP3 MSTORE POP POP JUMP JUMPDEST PUSH0 PUSH1 0x40 DUP3 ADD SWAP1 POP DUP2 DUP2 SUB PUSH0 DUP4 ADD MSTORE PUSH2 0x2030 DUP2 DUP6 PUSH2 0x1824 JUMP JUMPDEST SWAP1 POP PUSH2 0x203F PUSH1 0x20 DUP4 ADD DUP5 PUSH2 0x2009 JUMP JUMPDEST SWAP4 SWAP3 POP POP POP JUMP JUMPDEST PUSH0 PUSH1 0x60 DUP3 ADD SWAP1 POP PUSH2 0x2059 PUSH0 DUP4 ADD DUP7 PUSH2 0x2009 JUMP JUMPDEST PUSH2 0x2066 PUSH1 0x20 DUP4 ADD DUP6 PUSH2 0x2009 JUMP JUMPDEST PUSH2 0x2073 PUSH1 0x40 DUP4 ADD DUP5 PUSH2 0x2009 JUMP JUMPDEST SWAP5 SWAP4 POP POP POP POP JUMP JUMPDEST PUSH0 PUSH1 0x20 DUP3 DUP5 SUB SLT ISZERO PUSH2 0x2090 JUMPI PUSH2 0x208F PUSH2 0x1719 JUMP JUMPDEST JUMPDEST PUSH0 PUSH2 0x209D DUP5 DUP3 DUP6 ADD PUSH2 0x1767 JUMP JUMPDEST SWAP2 POP POP SWAP3 SWAP2 POP POP JUMP JUMPDEST PUSH0 DUP2 MLOAD SWAP1 POP SWAP2 SWAP1 POP JUMP JUMPDEST PUSH0 DUP3 DUP3 MSTORE PUSH1 0x20 DUP3 ADD SWAP1 POP SWAP3 SWAP2 POP POP JUMP JUMPDEST PUSH0 DUP2 SWAP1 POP PUSH1 0x20 DUP3 ADD SWAP1 POP SWAP2 SWAP1 POP JUMP JUMPDEST PUSH0 PUSH2 0x20DA DUP4 DUP4 PUSH2 0x1D9B JUMP JUMPDEST SWAP1 POP SWAP3 SWAP2 POP POP JUMP JUMPDEST PUSH0 PUSH1 0x20 DUP3 ADD SWAP1 POP SWAP2 SWAP1 POP JUMP JUMPDEST PUSH0 PUSH2 0x20F8 DUP3 PUSH2 0x20A6 JUMP JUMPDEST PUSH2 0x2102 DUP2 DUP6 PUSH2 0x20B0 JUMP JUMPDEST SWAP4 POP DUP4 PUSH1 0x20 DUP3 MUL DUP6 ADD PUSH2 0x2114 DUP6 PUSH2 0x20C0 JUMP JUMPDEST DUP1 PUSH0 JUMPDEST DUP6 DUP2 LT ISZERO PUSH2 0x214F JUMPI DUP5 DUP5 SUB DUP10 MSTORE DUP2 MLOAD PUSH2 0x2130 DUP6 DUP3 PUSH2 0x20CF JUMP JUMPDEST SWAP5 POP PUSH2 0x213B DUP4 PUSH2 0x20E2 JUMP JUMPDEST SWAP3 POP PUSH1 0x20 DUP11 ADD SWAP10 POP POP PUSH1 0x1 DUP2 ADD SWAP1 POP PUSH2 0x2117 JUMP JUMPDEST POP DUP3 SWAP8 POP DUP8 SWAP6 POP POP POP POP POP POP SWAP3 SWAP2 POP POP JUMP JUMPDEST PUSH0 PUSH1 0x20 DUP3 ADD SWAP1 POP DUP2 DUP2 SUB PUSH0 DUP4 ADD MSTORE PUSH2 0x2179 DUP2 DUP5 PUSH2 0x20EE JUMP JUMPDEST SWAP1 POP SWAP3 SWAP2 POP POP JUMP JUMPDEST PUSH2 0x218A DUP2 PUSH2 0x1740 JUMP JUMPDEST DUP3 MSTORE POP POP JUMP JUMPDEST PUSH0 PUSH1 0xC0 DUP3 ADD SWAP1 POP PUSH2 0x21A3 PUSH0 DUP4 ADD DUP10 PUSH2 0x2181 JUMP JUMPDEST DUP2 DUP2 SUB PUSH1 0x20 DUP4 ADD MSTORE PUSH2 0x21B5 DUP2 DUP9 PUSH2 0x1824 JUMP JUMPDEST SWAP1 POP PUSH2 0x21C4 PUSH1 0x40 DUP4 ADD DUP8 PUSH2 0x2009 JUMP JUMPDEST PUSH2 0x21D1 PUSH1 0x60 DUP4 ADD DUP7 PUSH2 0x2009 JUMP JUMPDEST PUSH2 0x21DE PUSH1 0x80 DUP4 ADD DUP6 PUSH2 0x2009 JUMP JUMPDEST PUSH2 0x21EB PUSH1 0xA0 DUP4 ADD DUP5 PUSH2 0x1D54 JUMP JUMPDEST SWAP8 SWAP7 POP POP POP POP POP POP POP JUMP JUMPDEST PUSH32 0x4E487B7100000000000000000000000000000000000000000000000000000000 PUSH0 MSTORE PUSH1 0x22 PUSH1 0x4 MSTORE PUSH1 0x24 PUSH0 REVERT JUMPDEST PUSH0 PUSH1 0x2 DUP3 DIV SWAP1 POP PUSH1 0x1 DUP3 AND DUP1 PUSH2 0x223A JUMPI PUSH1 0x7F DUP3 AND SWAP2 POP JUMPDEST PUSH1 0x20 DUP3 LT DUP2 SUB PUSH2 0x224D JUMPI PUSH2 0x224C PUSH2 0x21F6 JUMP JUMPDEST JUMPDEST POP SWAP2 SWAP1 POP JUMP JUMPDEST PUSH32 0x486973746F726963616C20617272617973206C656E677468206D69736D617463 PUSH0 DUP3 ADD MSTORE PUSH32 0x6800000000000000000000000000000000000000000000000000000000000000 PUSH1 0x20 DUP3 ADD MSTORE POP JUMP JUMPDEST PUSH0 PUSH2 0x22AD PUSH1 0x21 DUP4 PUSH2 0x17F6 JUMP JUMPDEST SWAP2 POP PUSH2 0x22B8 DUP3 PUSH2 0x2253 JUMP JUMPDEST PUSH1 0x40 DUP3 ADD SWAP1 POP SWAP2 SWAP1 POP JUMP JUMPDEST PUSH0 PUSH1 0x20 DUP3 ADD SWAP1 POP DUP2 DUP2 SUB PUSH0 DUP4 ADD MSTORE PUSH2 0x22DA DUP2 PUSH2 0x22A1 JUMP JUMPDEST SWAP1 POP SWAP2 SWAP1 POP JUMP JUMPDEST PUSH32 0x466F72656361737420617272617973206C656E677468206D69736D6174636800 PUSH0 DUP3 ADD MSTORE POP JUMP JUMPDEST PUSH0 PUSH2 0x2315 PUSH1 0x1F DUP4 PUSH2 0x17F6 JUMP JUMPDEST SWAP2 POP PUSH2 0x2320 DUP3 PUSH2 0x22E1 JUMP JUMPDEST PUSH1 0x20 DUP3 ADD SWAP1 POP SWAP2 SWAP1 POP JUMP JUMPDEST PUSH0 PUSH1 0x20 DUP3 ADD SWAP1 POP DUP2 DUP2 SUB PUSH0 DUP4 ADD MSTORE PUSH2 0x2342 DUP2 PUSH2 0x2309 JUMP JUMPDEST SWAP1 POP SWAP2 SWAP1 POP JUMP JUMPDEST PUSH0 DUP2 SWAP1 POP SWAP3 SWAP2 POP POP JUMP JUMPDEST PUSH0 PUSH2 0x235D DUP3 PUSH2 0x17EC JUMP JUMPDEST PUSH2 0x2367 DUP2 DUP6 PUSH2 0x2349 JUMP JUMPDEST SWAP4 POP PUSH2 0x2377 DUP2 DUP6 PUSH1 0x20 DUP7 ADD PUSH2 0x1806 JUMP JUMPDEST DUP1 DUP5 ADD SWAP2 POP POP SWAP3 SWAP2 POP POP JUMP JUMPDEST PUSH0 PUSH2 0x238E DUP3 DUP5 PUSH2 0x2353 JUMP JUMPDEST SWAP2 POP DUP2 SWAP1 POP SWAP3 SWAP2 POP POP JUMP JUMPDEST PUSH0 DUP2 SWAP1 POP DUP2 PUSH0 MSTORE PUSH1 0x20 PUSH0 KECCAK256 SWAP1 POP SWAP2 SWAP1 POP JUMP JUMPDEST PUSH0 PUSH1 0x20 PUSH1 0x1F DUP4 ADD DIV SWAP1 POP SWAP2 SWAP1 POP JUMP JUMPDEST PUSH0 DUP3 DUP3 SHL SWAP1 POP SWAP3 SWAP2 POP POP JUMP JUMPDEST PUSH0 PUSH1 0x8 DUP4 MUL PUSH2 0x23F5 PUSH32 0xFFFFFFFFFFFFFFFFFFFFFFFFFFFFFFFFFFFFFFFFFFFFFFFFFFFFFFFFFFFFFFFF DUP3 PUSH2 0x23BA JUMP JUMPDEST PUSH2 0x23FF DUP7 DUP4 PUSH2 0x23BA JUMP JUMPDEST SWAP6 POP DUP1 NOT DUP5 AND SWAP4 POP DUP1 DUP7 AND DUP5 OR SWAP3 POP POP POP SWAP4 SWAP3 POP POP POP JUMP JUMPDEST PUSH0 DUP2 SWAP1 POP SWAP2 SWAP1 POP JUMP JUMPDEST PUSH0 PUSH2 0x243A PUSH2 0x2435 PUSH2 0x2430 DUP5 PUSH2 0x177B JUMP JUMPDEST PUSH2 0x2417 JUMP JUMPDEST PUSH2 0x177B JUMP JUMPDEST SWAP1 POP SWAP2 SWAP1 POP JUMP JUMPDEST PUSH0 DUP2 SWAP1 POP SWAP2 SWAP1 POP JUMP JUMPDEST PUSH2 0x2453 DUP4 PUSH2 0x2420 JUMP JUMPDEST PUSH2 0x2467 PUSH2 0x245F DUP3 PUSH2 0x2441 JUMP JUMPDEST DUP5 DUP5 SLOAD PUSH2 0x23C6 JUMP JUMPDEST DUP3 SSTORE POP POP POP POP JUMP JUMPDEST PUSH0 PUSH0 SWAP1 POP SWAP1 JUMP JUMPDEST PUSH2 0x247E PUSH2 0x246F JUMP JUMPDEST PUSH2 0x2489 DUP2 DUP5 DUP5 PUSH2 0x244A JUMP JUMPDEST POP POP POP JUMP JUMPDEST JUMPDEST DUP2 DUP2 LT ISZERO PUSH2 0x24AC JUMPI PUSH2 0x24A1 PUSH0 DUP3 PUSH2 0x2476 JUMP JUMPDEST PUSH1 0x1 DUP2 ADD SWAP1 POP PUSH2 0x248F JUMP JUMPDEST POP POP JUMP JUMPDEST PUSH1 0x1F DUP3 GT ISZERO PUSH2 0x24F1 JUMPI PUSH2 0x24C2 DUP2 PUSH2 0x2399 JUMP JUMPDEST PUSH2 0x24CB DUP5 PUSH2 0x23AB JUMP JUMPDEST DUP2 ADD PUSH1 0x20 DUP6 LT ISZERO PUSH2 0x24DA JUMPI DUP2 SWAP1 POP JUMPDEST PUSH2 0x24EE PUSH2 0x24E6 DUP6 PUSH2 0x23AB JUMP JUMPDEST DUP4 ADD DUP3 PUSH2 0x248E JUMP JUMPDEST POP POP JUMPDEST POP POP POP JUMP JUMPDEST PUSH0 DUP3 DUP3 SHR SWAP1 POP SWAP3 SWAP2 POP POP JUMP JUMPDEST PUSH0 PUSH2 0x2511 PUSH0 NOT DUP5 PUSH1 0x8 MUL PUSH2 0x24F6 JUMP JUMPDEST NOT DUP1 DUP4 AND SWAP2 POP POP SWAP3 SWAP2 POP POP JUMP JUMPDEST PUSH0 PUSH2 0x2529 DUP4 DUP4 PUSH2 0x2502 JUMP JUMPDEST SWAP2 POP DUP3 PUSH1 0x2 MUL DUP3 OR SWAP1 POP SWAP3 SWAP2 POP POP JUMP JUMPDEST PUSH2 0x2542 DUP3 PUSH2 0x17EC JUMP JUMPDEST PUSH8 0xFFFFFFFFFFFFFFFF DUP2 GT ISZERO PUSH2 0x255B JUMPI PUSH2 0x255A PUSH2 0x1884 JUMP JUMPDEST JUMPDEST PUSH2 0x2565 DUP3 SLOAD PUSH2 0x2223 JUMP JUMPDEST PUSH2 0x2570 DUP3 DUP3 DUP6 PUSH2 0x24B0 JUMP JUMPDEST PUSH0 PUSH1 0x20 SWAP1 POP PUSH1 0x1F DUP4 GT PUSH1 0x1 DUP2 EQ PUSH2 0x25A1 JUMPI PUSH0 DUP5 ISZERO PUSH2 0x258F JUMPI DUP3 DUP8 ADD MLOAD SWAP1 POP JUMPDEST PUSH2 0x2599 DUP6 DUP3 PUSH2 0x251E JUMP JUMPDEST DUP7 SSTORE POP PUSH2 0x2600 JUMP JUMPDEST PUSH1 0x1F NOT DUP5 AND PUSH2 0x25AF DUP7 PUSH2 0x2399 JUMP JUMPDEST PUSH0 JUMPDEST DUP3 DUP2 LT ISZERO PUSH2 0x25D6 JUMPI DUP5 DUP10 ADD MLOAD DUP3 SSTORE PUSH1 0x1 DUP3 ADD SWAP2 POP PUSH1 0x20 DUP6 ADD SWAP5 POP PUSH1 0x20 DUP2 ADD SWAP1 POP PUSH2 0x25B1 JUMP JUMPDEST DUP7 DUP4 LT ISZERO PUSH2 0x25F3 JUMPI DUP5 DUP10 ADD MLOAD PUSH2 0x25EF PUSH1 0x1F DUP10 AND DUP3 PUSH2 0x2502 JUMP JUMPDEST DUP4 SSTORE POP JUMPDEST PUSH1 0x1 PUSH1 0x2 DUP9 MUL ADD DUP9 SSTORE POP POP POP JUMPDEST POP POP POP POP POP POP JUMP JUMPDEST PUSH32 0x4E487B7100000000000000000000000000000000000000000000000000000000 PUSH0 MSTORE PUSH1 0x32 PUSH1 0x4 MSTORE PUSH1 0x24 PUSH0 REVERT JUMPDEST PUSH0 PUSH1 0x20 DUP3 ADD SWAP1 POP PUSH2 0x2648 PUSH0 DUP4 ADD DUP5 PUSH2 0x2009 JUMP JUMPDEST SWAP3 SWAP2 POP POP JUMP JUMPDEST PUSH32 0x466F72656361737420646F6573206E6F74206578697374000000000000000000 PUSH0 DUP3 ADD MSTORE POP JUMP JUMPDEST PUSH0 PUSH2 0x2682 PUSH1 0x17 DUP4 PUSH2 0x17F6 JUMP JUMPDEST SWAP2 POP PUSH2 0x268D DUP3 PUSH2 0x264E JUMP JUMPDEST PUSH1 0x20 DUP3 ADD SWAP1 POP SWAP2 SWAP1 POP JUMP JUMPDEST PUSH0 PUSH1 0x20 DUP3 ADD SWAP1 POP DUP2 DUP2 SUB PUSH0 DUP4 ADD MSTORE PUSH2 0x26AF DUP2 PUSH2 0x2676 JUMP JUMPDEST SWAP1 POP SWAP2 SWAP1 POP JUMP INVALID LOG2 PUSH5 0x6970667358 0x22 SLT KECCAK256 POP 0xB6 PUSH4 0x59177F17 DUP5 DUP1 LOG3 PUSH15 0xDDE90191BF3CF48DE5CE9EBD72533B 0x4C 0x23 0xD6 0xB4 TLOAD 0xAE PUSH5 0x736F6C6343 STOP ADDMOD 0x1E STOP CALLER "
		},
		"gasEstimates": {
			"creation": {
				"codeDepositCost": "1992800",
				"executionCost": "2111",
				"totalCost": "1994911"
			},
			"external": {
				"forecastData(address,string,uint256)": "infinite",
				"forecastExists(address,string)": "infinite",
				"getForecastData(address,string)": "infinite",
				"getForecastRecord(address,string)": "infinite",
				"getHistoricalData(address,string)": "infinite",
				"getMetrics(address,string)": "infinite",
				"getUserForecastTypes(address)": "infinite",
				"historicalData(address,string,uint256)": "infinite",
				"metrics(address,string)": "infinite",
				"records(address,string)": "infinite",
				"storeForecast(string,string[],uint256[],string[],uint256[],uint256,uint256,uint256)": "infinite",
				"userForecastTypes(address,uint256)": "infinite"
			}
		},
		"methodIdentifiers": {
			"forecastData(address,string,uint256)": "7190221b",
			"forecastExists(address,string)": "490348b7",
			"getForecastData(address,string)": "634a5d1c",
			"getForecastRecord(address,string)": "4ce8f1ff",
			"getHistoricalData(address,string)": "7911c257",
			"getMetrics(address,string)": "42fba991",
			"getUserForecastTypes(address)": "b260cbac",
			"historicalData(address,string,uint256)": "6d955f50",
			"metrics(address,string)": "ab1ebbb0",
			"records(address,string)": "d8e77cdb",
			"storeForecast(string,string[],uint256[],string[],uint256[],uint256,uint256,uint256)": "321eca56",
			"userForecastTypes(address,uint256)": "11eab7a5"
		}
	},
	"abi": [
		{
			"anonymous": false,
			"inputs": [
				{
					"indexed": true,
					"internalType": "address",
					"name": "user",
					"type": "address"
				},
				{
					"indexed": true,
					"internalType": "string",
					"name": "forecastType",
					"type": "string"
				},
				{
					"indexed": false,
					"internalType": "uint256",
					"name": "timestamp",
					"type": "uint256"
				}
			],
			"name": "ForecastStored",
			"type": "event"
		},
		{
			"inputs": [
				{
					"internalType": "address",
					"name": "",
					"type": "address"
				},
				{
					"internalType": "string",
					"name": "",
					"type": "string"
				},
				{
					"internalType": "uint256",
					"name": "",
					"type": "uint256"
				}
			],
			"name": "forecastData",
			"outputs": [
				{
					"internalType": "string",
					"name": "month",
					"type": "string"
				},
				{
					"internalType": "uint256",
					"name": "value",
					"type": "uint256"
				}
			],
			"stateMutability": "view",
			"type": "function"
		},
		{
			"inputs": [
				{
					"internalType": "address",
					"name": "userAddress",
					"type": "address"
				},
				{
					"internalType": "string",
					"name": "forecastType",
					"type": "string"
				}
			],
			"name": "forecastExists",
			"outputs": [
				{
					"internalType": "bool",
					"name": "",
					"type": "bool"
				}
			],
			"stateMutability": "view",
			"type": "function"
		},
		{
			"inputs": [
				{
					"internalType": "address",
					"name": "userAddress",
					"type": "address"
				},
				{
					"internalType": "string",
					"name": "forecastType",
					"type": "string"
				}
			],
			"name": "getForecastData",
			"outputs": [
				{
					"components": [
						{
							"internalType": "string",
							"name": "month",
							"type": "string"
						},
						{
							"internalType": "uint256",
							"name": "value",
							"type": "uint256"
						}
					],
					"internalType": "struct SalesForecast.ForecastData[]",
					"name": "",
					"type": "tuple[]"
				}
			],
			"stateMutability": "view",
			"type": "function"
		},
		{
			"inputs": [
				{
					"internalType": "address",
					"name": "userAddress",
					"type": "address"
				},
				{
					"internalType": "string",
					"name": "forecastType",
					"type": "string"
				}
			],
			"name": "getForecastRecord",
			"outputs": [
				{
					"components": [
						{
							"internalType": "address",
							"name": "user",
							"type": "address"
						},
						{
							"internalType": "string",
							"name": "forecastType",
							"type": "string"
						},
						{
							"internalType": "uint256",
							"name": "timestamp",
							"type": "uint256"
						},
						{
							"internalType": "uint256",
							"name": "historicalCount",
							"type": "uint256"
						},
						{
							"internalType": "uint256",
							"name": "forecastCount",
							"type": "uint256"
						},
						{
							"internalType": "bool",
							"name": "exists",
							"type": "bool"
						}
					],
					"internalType": "struct SalesForecast.ForecastRecord",
					"name": "",
					"type": "tuple"
				}
			],
			"stateMutability": "view",
			"type": "function"
		},
		{
			"inputs": [
				{
					"internalType": "address",
					"name": "userAddress",
					"type": "address"
				},
				{
					"internalType": "string",
					"name": "forecastType",
					"type": "string"
				}
			],
			"name": "getHistoricalData",
			"outputs": [
				{
					"components": [
						{
							"internalType": "string",
							"name": "month",
							"type": "string"
						},
						{
							"internalType": "uint256",
							"name": "value",
							"type": "uint256"
						}
					],
					"internalType": "struct SalesForecast.ForecastData[]",
					"name": "",
					"type": "tuple[]"
				}
			],
			"stateMutability": "view",
			"type": "function"
		},
		{
			"inputs": [
				{
					"internalType": "address",
					"name": "userAddress",
					"type": "address"
				},
				{
					"internalType": "string",
					"name": "forecastType",
					"type": "string"
				}
			],
			"name": "getMetrics",
			"outputs": [
				{
					"components": [
						{
							"internalType": "uint256",
							"name": "mape",
							"type": "uint256"
						},
						{
							"internalType": "uint256",
							"name": "mae",
							"type": "uint256"
						},
						{
							"internalType": "uint256",
							"name": "rmse",
							"type": "uint256"
						}
					],
					"internalType": "struct SalesForecast.Metrics",
					"name": "",
					"type": "tuple"
				}
			],
			"stateMutability": "view",
			"type": "function"
		},
		{
			"inputs": [
				{
					"internalType": "address",
					"name": "userAddress",
					"type": "address"
				}
			],
			"name": "getUserForecastTypes",
			"outputs": [
				{
					"internalType": "string[]",
					"name": "",
					"type": "string[]"
				}
			],
			"stateMutability": "view",
			"type": "function"
		},
		{
			"inputs": [
				{
					"internalType": "address",
					"name": "",
					"type": "address"
				},
				{
					"internalType": "string",
					"name": "",
					"type": "string"
				},
				{
					"internalType": "uint256",
					"name": "",
					"type": "uint256"
				}
			],
			"name": "historicalData",
			"outputs": [
				{
					"internalType": "string",
					"name": "month",
					"type": "string"
				},
				{
					"internalType": "uint256",
					"name": "value",
					"type": "uint256"
				}
			],
			"stateMutability": "view",
			"type": "function"
		},
		{
			"inputs": [
				{
					"internalType": "address",
					"name": "",
					"type": "address"
				},
				{
					"internalType": "string",
					"name": "",
					"type": "string"
				}
			],
			"name": "metrics",
			"outputs": [
				{
					"internalType": "uint256",
					"name": "mape",
					"type": "uint256"
				},
				{
					"internalType": "uint256",
					"name": "mae",
					"type": "uint256"
				},
				{
					"internalType": "uint256",
					"name": "rmse",
					"type": "uint256"
				}
			],
			"stateMutability": "view",
			"type": "function"
		},
		{
			"inputs": [
				{
					"internalType": "address",
					"name": "",
					"type": "address"
				},
				{
					"internalType": "string",
					"name": "",
					"type": "string"
				}
			],
			"name": "records",
			"outputs": [
				{
					"internalType": "address",
					"name": "user",
					"type": "address"
				},
				{
					"internalType": "string",
					"name": "forecastType",
					"type": "string"
				},
				{
					"internalType": "uint256",
					"name": "timestamp",
					"type": "uint256"
				},
				{
					"internalType": "uint256",
					"name": "historicalCount",
					"type": "uint256"
				},
				{
					"internalType": "uint256",
					"name": "forecastCount",
					"type": "uint256"
				},
				{
					"internalType": "bool",
					"name": "exists",
					"type": "bool"
				}
			],
			"stateMutability": "view",
			"type": "function"
		},
		{
			"inputs": [
				{
					"internalType": "string",
					"name": "forecastType",
					"type": "string"
				},
				{
					"internalType": "string[]",
					"name": "historicalMonths",
					"type": "string[]"
				},
				{
					"internalType": "uint256[]",
					"name": "historicalValues",
					"type": "uint256[]"
				},
				{
					"internalType": "string[]",
					"name": "forecastMonths",
					"type": "string[]"
				},
				{
					"internalType": "uint256[]",
					"name": "forecastValues",
					"type": "uint256[]"
				},
				{
					"internalType": "uint256",
					"name": "mape",
					"type": "uint256"
				},
				{
					"internalType": "uint256",
					"name": "mae",
					"type": "uint256"
				},
				{
					"internalType": "uint256",
					"name": "rmse",
					"type": "uint256"
				}
			],
			"name": "storeForecast",
			"outputs": [],
			"stateMutability": "nonpayable",
			"type": "function"
		},
		{
			"inputs": [
				{
					"internalType": "address",
					"name": "",
					"type": "address"
				},
				{
					"internalType": "uint256",
					"name": "",
					"type": "uint256"
				}
			],
			"name": "userForecastTypes",
			"outputs": [
				{
					"internalType": "string",
					"name": "",
					"type": "string"
				}
			],
			"stateMutability": "view",
			"type": "function"
		}
	]
}